:020000040800F2
:10000000307D0020450100084D0100082D19000831
:10001000651A0008C50D0008C9240008000000008A
:100020000000000000000000000000005701000870
:1000300059010008000000005B0100085D01000894
:100040005F0100085F0100085F0100085F01000810
:100050005F0100085F0100085F0100085F01000800
:100060005F0100085F0100085F0100085F010008F0
:100070005F0100085F0100085F0100085F010008E0
:100080005F0100085F0100085F0100085F010008D0
:100090004D2400085F0100085F0100085F010008AF
:1000A0005F0100085F0100085F0100085F010008B0
:1000B0005F010008B11F00085F0100085F01000830
:1000C0005F0100085F0100085F0100085F01000890
:1000D0005F0100085D210008D121000839220008D5
:1000E0005F0100085F0100085F0100085F01000870
:1000F0005F0100085F0100085F0100085F01000860
:100100005F0100085F0100085F0100085F0100084F
:10011000B9200008052100085F0100085F01000800
:100120005F0100085F0100085F0100085F0100082F
:10013000DFF80CD000F0D4F9004800477131000816
:10014000307D00200648804706480047FEE7FEE76E
:10015000FEE7FEE7FEE7FEE7FEE7FEE7FEE7FEE777
:10016000ED1E00083101000840EA01039B0703D09F
:1001700009E008C9121F08C0042AFAD203E011F8E6
:10018000013B00F8013B521EF9D27047D2B201E0A8
:1001900000F8012B491EFBD270470022F6E710B58C
:1001A00013460A4604461946FFF7F0FF204610BDE5
:1001B00030B504460020034600E05B1C934203D2A6
:1001C000E05CCD5C401BF8D030BD00000FB400B542
:1001D0008DB010A909900B9000914FF0FF300A905C
:1001E00000200C9005480690054807906A4609A82B
:1001F0000F9900F047F90DB05DF814FBA104000859
:10020000BF0400082DE9FF5F1D464FF0FF3BD5E915
:10021000014691465F464FF00008A9697F1C01988E
:100220008847296A824688470028F6D1BAF1FF3FFD
:100230000CD024F4C064002E19DD600614D5BAF188
:100240002B0F09D0BAF12D0F0ED103E0584604B0A0
:10025000BDE8F09F44F48064A9697F1C0198884739
:10026000761E8246002E02DDBAF1300F03D0B9F1BE
:10027000000F26D032E0A969761E44F400747F1C7A
:10028000019888478246002E05DDBAF1780F06D026
:10029000BAF1580F03D0B9F1000F10D01EE0B9F138
:1002A000000F02D0B9F1100F18D1A969761E24F4FD
:1002B00000747F1C019888478246102002E00820C5
:1002C00000E00A20814609E008FB0908A969761EBA
:1002D00044F400747F1C019888478246002E05DD97
:1002E0004946504600F0BAF80028EDDAE96901986D
:1002F0008847A00502D46FF00100A8E7E00725D1E8
:10030000600613D5600502D5C8F1000000E0404644
:1003100029680A1D2A600968220501D5087015E0C0
:10032000220701D5088011E008600FE02868011D50
:1003300029600068210502D580F8008006E02107C9
:1003400002D5A0F8008001E0C0F8008038467EE7C2
:100350002DE9FF5FD2E901A74FF0000891699946A6
:100360001446DDF838B0464601988847054659EAF4
:100370000B0005D009E0A169761C01988847054665
:10038000216A284688470028F5D1681C03D05FEA17
:10039000CA7005D015E04FF0FF3004B0BDE8F09F03
:1003A0002068011D2160D0F800800AE05FEACA7071
:1003B00001D108F8015BA169761C7F1E019888476E
:1003C0000546002F1ADD681C18D0B9F1000F0DD0BA
:1003D000E81705EBD060421120F01F0059F82210F9
:1003E0002A1A012090400142E0D107E0BBF1000F42
:1003F000DCD1216A284688470028D7D0E1690198D6
:100400008847BBF1000F07D1002E05DD5FEACA70F7
:1004100002D1002188F80010A068B84203DDBBF1CA
:10042000000F03D017B16FF00100B6E73046B4E714
:1004300030B50B46014600202022012409E021FAB4
:1004400002F59D4205D303FA02F5491B04FA02F5B1
:100450002844151EA2F10102F1DC30BD3A2800D279
:10046000303820F02002412A01D3A2F1370088421F
:1004700001D34FF0FF3070470268114413780160D8
:1004800018467047D1600449516104491162002146
:100490001161114600F042B8790400081105000806
:1004A000426842B1016811F8013B23B1521EC0E914
:1004B0000012184670470121C160881E70474268CB
:1004C0005AB1C368016843B983688B4205D0491E9D
:1004D000521CC0E90012002070474FF0FF307047F7
:1004E0001CB509480090094801900546009C06E0AB
:1004F000E06840F0010394E8070098471034AC42EC
:10050000F6D3FFF719FE0000D0570008F057000897
:10051000C0B24FF4F05100F097B900002DE9F34F4D
:100520008BB04FF0000801F10C000C464FF0010BAE
:1005300046460DF1080A0190626901210198904731
:10054000051E2DD0252D2CD0216A8847C0B16269A7
:10055000012101989047216A88470028F7D1411E60
:1005600062690198904700E0761CA1690B98884762
:10057000216A88470028F7D1E1690B988847DBE7B3
:10058000A1690B9888470746A84201D1761CD3E79A
:10059000E1690B9888477F1C02D1B8F1000F6FD03A
:1005A00046E1002762693D463946019890472A286E
:1005B00004D162690121019890470125DFF88492F6
:1005C0006269012101989047A0F130010A290AD2FD
:1005D0004F45E5DC07EB870100EB4107303FDFD4F7
:1005E00045F01005ECE7E90601D46FF000476C28F0
:1005F0000AD04C2814D0682815D06A280DD0742849
:100600001CD07A281AD01DE0626901210198904718
:100610006C2802D045F0040514E045F002050DE019
:1006200045F020050AE06269012101989047682899
:1006300002D045F0080505E045F400656269012136
:1006400001989047C4E9015765283DD019DC582826
:100650007AD00CDC452837D004DC252826D0412868
:1006600031D131E046282FD047282CD12CE05B280F
:1006700077D0612828D063287CD0642823D15AE021
:10068000D0E06F2848D008DC66281DD067281BD032
:10069000692821D06E2816D127E0702845D073280C
:1006A00068D0752847D078280DD14DE0A1690B9806
:1006B0008847054625283FF469AFE1690B988847CC
:1006C0006D1C3FF46AAFB3E023466A466FF0010049
:1006D0000B99AFF300809EE045F040006060A807F2
:1006E00023464FF0000236D43EE0E8077FF447AFE0
:1006F0002068011D21600068290501D506701BE7EF
:10070000290701D5068017E7A90703D5F117C0E926
:10071000006111E706600FE745F040006060A80740
:1007200023464FF0080216D41EE040F60E0125EADB
:100730000100606016E045F040006060A8072346B5
:100740004FF00A0207D40FE045F040006060A807B0
:1007500008D5234610226FF001000B99AFF30080FB
:1007600059E007E0234610226FF001000B99FFF7D4
:1007700049FD50E04FF000094F464B46632802D038
:100780005B2806D040E0E80601D40120A0600127E4
:100790003AE062690121019890475E2805D14FF047
:1007A00001096269494601989047216939B90021D8
:1007B0000A46534643F82120491C0829FADBB0B306
:1007C000216969B9C11700EBD16253110AEB8301AA
:1007D00022F01F02821A01200B68904003430B6035
:1007E00062690121019890475D28E8D1B9F1000FB5
:1007F00009D00020514651F82020D24341F8202052
:10080000401C0828F7DB02AB224600976FF001007E
:100810000B99FFF79DFD00280CDA401C08D1BBF1B5
:10082000000F05D04FF0FF300DB0BDE8F08FFFE7AF
:100830004046F9E7E90701D108F1010806444FF005
:10084000000B79E6CCCCCC0C7F2801D9002208E043
:10085000064A02EB5002C007127800D1120902F0DA
:100860000F0201209040084070470000E05100084E
:100870002DE9F84F99B3384E89464FF0000B4FF6EB
:10088000FF774FF480684EF22A348A46D94527D93B
:10089000A9EB0B0258463146B2F5806F28BF42469D
:1008A00001F074FEBAF5806F4FF4806038BF504697
:1008B000002181420ED0725C57400022072A07D8DF
:1008C00084EA5703FD0708BF7B0801321F46F5E79E
:1008D0000131EEE7AAF5806A0BF5806BD6E70027B9
:1008E000B8B2BDE8F88F00BF2DE9F84F82B31A4FB8
:1008F0001A4D914604464FF0000B4FF48068924623
:10090000BAF5806F4FF4806638BF5646D94520D976
:10091000A9EB0B0258463946B2F5806F28BF424614
:1009200001F034FE0020B0420DD0395C4C4008216B
:1009300039B185EA5402E30708BF62080139144659
:10094000F6E70130EFE7AAF5806A0BF5806BD7E791
:1009500000242046BDE8F88F786C00202083B8ED95
:100960002DE9F84F3F4D6E88A888B04238D0801BE3
:1009700000F52F714FF42F7091FBF0F202FB101273
:10098000072A2DDB711CDFF8E090DFF8E080B1FB77
:10099000F0F303FB101AB6FBF0F101FB106098F8BE
:1009A000011019F80000884255D119F80A0098F88A
:1009B000021088424FD1B01C4FF42F7EB0FBFEF1E5
:1009C00001FB1E00F11CB1FBFEF319F8000003FB54
:1009D0001E1119F8011041EA0020071DBA4201D288
:1009E00000273BE000902348214A09EB06033C46E0
:1009F000844630465CB1B0FBFEF1E3460130013C79
:100A000001FB0CF1595C013302F8011BF2E73E4493
:100A10004FF42F7BB01EB0FBFBF101FB1B040098D1
:100A2000023081B2124800F027F819F80410884209
:100A300011D1701EB0FBFBF101FB1B0098F80010F8
:100A400019F80000814206D14FF42F70B6FBF0F187
:100A500001FB106A00E00027A5F802A03846BDE8B7
:100A6000F88F00BFB0000020B05C00200000002024
:100A7000104D002044FDFFFF002221B110F8013B82
:100A800001391A44F9E7D0B270470000F0B585B0DB
:100A90001420012101F0A4F8EF4C4E480DF1060698
:100AA0004D4F314604F52C4501F053F828460121FD
:100AB00000F038FF494804F52445314601F049F873
:100AC0004748314601F045F84FF00070012101F030
:100AD0006FF8204600F0AEF90DF1060000F025FB9E
:100AE0004FF48070404A0021ADF81000ADF80C00C2
:100AF0003C488DF80E108DF808100068904231D0F7
:100B00003A49884238D03A49884239D039498842EE
:100B100024D03949884216D0384988421ED03849F5
:100B2000884210D0374988422ED0374988420AD1AE
:100B300000208DF80B004FF4A060ADF809000120F3
:100B40008DF80F0023E000204FF4A0618DF80B001A
:100B50008DF80F000820ADF8091018E000F0ABFF89
:100B6000062014E04FF4A0608DF80B108DF80F10E4
:100B7000ADF809000C200AE000F09DFF022006E01D
:100B800000F099FF042002E000F095FF0920ADF885
:100B900006000DF10601204600F016FA1B484FF43E
:100BA000801101220160204640F2024100F004FA67
:100BB0000020ADF80E001648CDF80A001548CDF813
:100BC0000600154804900DF1060000F047F905B045
:100BD000F0BD00BF01000310ED170008001003185E
:100BE000000803482000002000D8B80500127A0051
:100BF0000024F40000366E010048E801006CDC02BD
:100C00000090D00300A24A0400093D0000E100E08A
:100C1000070006F800000428000001012DE9F04F4C
:100C200085B0DFF8B4CBBCF80000BCF802108142FC
:100C300001D10020B8E05E4ADFF878815F4F604D57
:100C400001F24C44002140F24C460191049492F888
:100C500001E01378127900930392CDF808E0211A8D
:100C600091FBF6F202FB16110729C0F29C80421C90
:100C7000B2FBF6F303FB162AB0FBF6F202FB1602F8
:100C800018F80220724569D118F80A20102A65D197
:100C9000831CB3FBF6F404FB163318F803301A4434
:100CA000FF2A5AD1C21C049CB2FBF6F303FB1622A6
:100CB000039B18F802209A4250D1021DB2FBF6F3B2
:100CC00003FB162218F80220A2F13203112B05D8DB
:100CD000012404FA03F313F0031F08D1113A112A77
:100CE00057D8012303FA02F2334B1A4251D0421D66
:100CF000B2FBF6F303FB1622831DB3FBF6F418F8E0
:100D0000022004FB163318F8033043EA022202F1F2
:100D1000090B594547D308EB0001002203469345D0
:100D200008D0B3FBF6F4013304FB0714A45CAC5405
:100D30000132F4E70BEB00096446A9F1020000F070
:100D40001AFF18F80020ABF1020081B2284601F02A
:100D50003DFE40B1DDF808E0A446049CACF800A0DC
:100D60001FFA8AF07BE7A9F10100A446DDF808E04C
:100D7000049CB0FBF6F101FB1600009918F8000086
:100D80008142EBD1B9FBF6F0CDF804B000FB169A26
:100D9000E4E7421DB2FBF6F303FB162218F802202B
:100DA00002F1080BB5E7019805B0BDE8F08F00BF70
:100DB000080000206C5F002001000300B4FBFFFF6F
:100DC000CC4F002001F08EBDB1F5003F28D00429A2
:100DD00022D0082926D0202927D040291ED0B1F5BD
:100DE000807F18BFB1F5007F02D1042141607047B8
:100DF000B1F5806FF9D0B1F5006F0AD0B1F5004FB1
:100E000007D0B1F5803F13D00129F0D16949816045
:100E1000704700218161E8E7082104E0102105E026
:100E20001021E3E71021C16070470821016170477C
:100E30000821DBE710B508494FF08064884208BFFD
:100E40004FF000742046012100F0BEFE2046002134
:100E5000BDE8104000F0B8BE00640040F0B526497F
:100E60000A6842F001020A600122847A057BCB699C
:100E7000A2409343CB61D343012D0CD0EDB9CD6893
:100E80001D40CD6001EBC405C688478847EA064689
:100E90002E6405460AE0CD681543CD6001EBC4051C
:100EA0000688478847EA06462E64851D86882D8871
:100EB00001EBC40445EA064565644C68C67A44EA19
:100EC0000205002E08BF04EA03054D600489012CC9
:100ED00003D02CB94C69234001E04B6913434B61AB
:100EE000407B012802D1C8691043C861086820F01E
:100EF00001000860F0BD00BF006600400246406986
:100F0000084204BF002070474B1E0020072B1CD94D
:100F100010292CD020292ED040292ED0B1F5807F49
:100F20002FD0B1F5007F30D0B1F5806F31D0B1F561
:100F3000006F30D0B1F5004F33D0B1F5803F34D0E1
:100F4000B1F5003F30D1506818E00FF20601DFE83C
:100F500003F004082B0A2B2B2B0C90681549084032
:100F60001CE0D06804E0D06820E0D06806E010699A
:100F700010F0030012E0106918E01069C0F30010CF
:100F80007047906900F0010070479069C0F340001D
:100F90007047906906E0906910F0700018BF01205A
:100FA00070475068C0F3800070475068C0F3C000BD
:100FB000704700BF01010100002A42690CBF22EA0C
:100FC000010111434161704770B50268002322F0AE
:100FD00002020260026842F0010202604FF6FF72F4
:100FE0004568013A43F10004ED0701D1002CF7D127
:100FF0004268D2074FF0000250D08B79046824F089
:101000008004012B08BF80340460CB79046824F08D
:101010004004012B08BF403404600B7A046824F0BC
:101020002004012B08BF203404604B7A046824F0AC
:101030001004012B08BF103404608B7A046824F07C
:101040000804012B08BF08340460CB7A046824F03C
:101050000404012B08BF04340460CC788B780D792C
:101060004E7909882406013944EA837343EA05432B
:1010700043EA06531943C161016821F0010101608F
:101080004FF6FF714468013942F10003E40718BFCD
:10109000002BF7D14068012121EA0002104670BD03
:1010A000F0B500EB0113D3F8B04114F0040414724E
:1010B00003F5D874D3F8B05119BFED0855606D0D24
:1010C00015602668D3F8B451D3F8B441D3F8B87199
:1010D000D772D3F8B8713F0A1773D3F8B8713F0CC1
:1010E0005773D3F8B8713F0E9773D3F8BC71D773A9
:1010F000D3F8BC713F0A1774D3F8BC713F0C577416
:10110000D3F8BC311B0E93741023002908BF0C23A5
:10111000C15841F02001C15006F00200507205F0A4
:101120000F009072200AD074F0BD0021C0F80610A4
:10113000418140F203218180012101607047024614
:101140008068400109D49068000108D49068C0000C
:101150005CBF04207047022002E0002000E0012074
:1011600070B502EB0013D3F8802102F00102C3F83E
:10117000802103F5C0720C7A1CB14D6844EAC504A5
:1011800001E00C6864054D7A8E7A2C4315682C4377
:1011900006F00F051460D3F8844124F00F04C3F85F
:1011A0008441D3F884412C43C3F88441D1F80B40E7
:1011B000C3F88841D1F80F40C3F88C418D72116893
:1011C00041F00101116070BD2DE9F84F4C4D2888A8
:1011D0006988814250D0091A40F24C4201F24C41D8
:1011E00091FBF2F303FB1211082945DB431CDFF8E6
:1011F00014A1DFF81481B3FBF2F404FB123BB0FB43
:10120000F2F303FB120298F801301AF802209A4216
:101210006FD11AF80B2098F802309A4269D1831CDA
:1012200040F24C42B3FBF2F404FB123398F8034053
:101230001AF80330A3425CD1C31CB3FBF2F404FBE5
:10124000123298F804301AF802209A4251D1421D05
:1012500040F24C4EB2FBFEF303FB1E22031DB3FB18
:10126000FEF41AF8022004FB1E331AF8033043EA96
:101270000222971DB94201D200273DE00092244A84
:10128000224B0AEB00013C46944602465CB1B2FB9D
:10129000FEF6E1460132013C06FB0CF68E5D0131A3
:1012A00003F8016BF2E707EB000940F24C44A9F1A7
:1012B0000200B0FBF4F101FB14060098011D134875
:1012C00000F028F81AF80610884212D1A9F101009E
:1012D000B0FBF4F101FB140098F800101AF80000BC
:1012E000814206D140F24C40B9FBF0F101FB109B6A
:1012F00000E00027A5F800B03846BDE8F88F00BF31
:10130000A4000020B863002003000020185400202F
:10131000B4FBFFFF70B50023072281B104780139C7
:1013200063400024072C08D85DB25E00002D48BF42
:1013300082EA430633460134F4E70130EDE7D8B2E0
:1013400070BDC9B1F0B500234FF6FF724EF22A34DA
:101350008B420ED0C55C6A400025072D07D884EA71
:101360005206D70708BF560801353246F5E7013364
:10137000EEE7BDE8F04000E0002290B270470000C8
:10138000F0B5094C0023934208BFF0BDCD5C684026
:1013900008253DB184EA5006C70708BF4608013D4D
:1013A0003046F6E70133EEE72083B8ED002221B1A5
:1013B00010F8013B01391A44F9E7D0B2704710B573
:1013C0000239445C89B2FFF7F1FF201A18BF0120EF
:1013D00010BD000001480249016070477400002000
:1013E000B119000810B515484FF6FF020168114009
:1013F000134A11434FF0FF320160124800210829BF
:101400000BD000EB810340F821200131C3F800210B
:10141000BFF34F8FBFF36F8FF1E70B4A002106290F
:1014200006D053564C010131034483F88042F6E75D
:101430000648016841F00101016010BD0CED00E0BB
:101440000003FA0580E100E0445200081810024051
:1014500081B00090009842F20C01C4F202010860D1
:1014600001B0704780B584B0039004208DF80B0064
:101470004FF0FF3000F0CAF88DF80B009DF80B001C
:10148000042820D1FFE742F21001C4F202010191C9
:10149000086840F002000860039842F21402C4F2A7
:1014A00002021060086840F0400008604FF0FF3012
:1014B00000F0ACF801998DF80B00086841F6FD7258
:1014C00010400860FFE79DF80B0004B080BD0000ED
:1014D00081B004208DF8030042F20C00C4F2020037
:1014E0000068C00720B1FFE701208DF803001FE06E
:1014F00042F20C00C4F2020000684007002804D544
:10150000FFE702208DF8030011E042F20C00C4F264
:1015100002000068C006002804D5FFE703208DF80C
:10152000030003E004208DF80300FFE7FFE7FFE777
:101530009DF8030001B0704742F21001C4F20201AD
:10154000086840F0800008607047000080B584B0F3
:101550000390029104208DF80700002000904FF0C6
:10156000FF3000F053F88DF807009DF807000428BD
:1015700038D1FFE742F21001C4F20201086840F0DE
:10158000010008600298039908804FF0FF3000F0D6
:101590003DF88DF807009DF80700042817D1FFE7F4
:1015A000039802300090BDF80A00009908804FF0BF
:1015B000FF3000F02BF88DF8070042F21001C4F262
:1015C0000201086841F6FE721040086009E042F22C
:1015D0001001C4F20201086841F6FE721040086072
:1015E000FFE7FFE79DF8070004B080BD42F2040169
:1015F000C4F2020140F22310C4F26750086048F6BA
:10160000AB10CCF6EF5008607047000080B584B096
:10161000039004208DF80B00FFF75AFF8DF80B00A4
:10162000FFE79DF80B1000200129019006D1FFE78C
:101630000398002818BF01200190FFE70198C00718
:1016400040B1FFE7FFF744FF8DF80B000398013826
:101650000390E6E7039820B9FFE705208DF80B001B
:10166000FFE79DF80B0004B080BD00002DE9F84FA6
:10167000594DAB88E888984267D0C01A00F24C41B7
:1016800040F24C4091FBF0F202FB101107295CDBA9
:101690005A1CDFF8C4AADFF84481B2FBF0F404FB63
:1016A000102BB3FBF0F202FB103098F801201AF86F
:1016B0000000904240F083801AF80B0000241028AC
:1016C0007ED19A1C40F24C46B2FBF6F707FB16227D
:1016D0001AF802201044FF2872D1DA1C40F24C4064
:1016E000B2FBF0F404FB102298F804401AF8022030
:1016F000A24264D11A1DB2FBF0F404FB10201AF8C8
:101700000000A0F13202112A05D8012404FA02F2E5
:1017100012F0031F08D11138112856D8012202FAFD
:1017200000F02F4A104250D000F00BFA9C1DB4FB81
:10173000F2F61AF8000006FB12421AF8022042EAFA
:10174000002000F10904A14201D200243AE025481A
:10175000DFF894900AEB0301002240F24C4C8646DD
:10176000184694420AD0B0FBFCF77646013007FBDE
:101770000E17BF5C09F802700132F2E704EB0309AF
:1017800040F24C46A9F1020000F0F5F91AF80020E9
:10179000A01E81B2144801F019F980B9A9F1010025
:1017A00000F0E9F998F800101AF80000814206D11B
:1017B00040F24C40B9FBF0F101FB109B00E000242B
:1017C000A5F804B02046BDE8F88F00F0BAF91AF881
:1017D000000000F10804B6E7A8000020080000207F
:1017E00001000300B4FBFFFF645800202DE9F04F17
:1017F00091F803B00BF00F095FEACB6344BF8B781D
:1018000049EA030909880B0625D0824600F1100C2D
:1018100000274FF001084FF00F0E00265AF8145B16
:10182000082E17D008FA06F30B4210D00EFA07F272
:1018300009FA07F4BBF1280F25EA020242EA04057F
:10184000544603D0BBF1480F01D1644623600437EE
:101850000136E5E70560B1F5807F25D3466800F1E4
:10186000140A00F1100C00274FF480784FF00F0E8F
:101870000025082D17D008FA05F30B4210D00EFAF8
:1018800007F409FA07F2BBF1280F26EA040444EA38
:101890000206544603D0BBF1480F01D164462360D1
:1018A00004370135E5E74660BDE8F08FF0B51C4B25
:1018B000B0F1FF3F00F4401603F118021446C4BF14
:1018C0000424C4F201042568B6F5401F84B206D191
:1018D0001E6825F0706526F070661E6010E0C60276
:1018E00006D46FF00F0606EA504604FA06F604E046
:1018F000C0F30346032707FA06F6B54345F07065C3
:10190000B0F1FF3FC8BF1A466FF00F0303EA504023
:10191000002904FA00F018BF05431560F0BD00BFB0
:10192000040001404161704701617047104C6068DC
:10193000800702D50FA000F089F8606840000BD541
:10194000607808B100F0CEFF207808B101F064FDA6
:10195000608808B103F04CF86068B0F1FF3F02DC2A
:101960000AA000F073F80DA000F070F800F06AFF14
:1019700028ED00E06661696C656420766563746FCC
:10198000722066657463680A000000006465627511
:1019900067206576656E740A000000004861726415
:1019A0004661756C745F48616E646C65722E0A00E6
:1019B0000849D1F88020D2070BD00968C90708D0A0
:1019C0004FF060410A680AB900BFFBE74FF0604181
:1019D00008707047000E00E011484CF6CC410160E1
:1019E000704700BF02490968084018BF01207047CE
:1019F0000C3000400A484AF6AA210160704700BF37
:101A000001490860704700BF043000400149086088
:101A1000704700BF0830004001490860704700BFB0
:101A20000030004070B51C4615460E4618B1014600
:101A300005A000F00BF8304600212A462346BDE8F9
:101A4000704002F0C1B800BF2573000083B0C0B57C
:101A500003AF0EC703A9009103F008F9BDE8884061
:101A600003B0704701F0D8BC4FF0FF30C5E901006A
:101A7000E86002F0A1B996218DF80E0030468DF88D
:101A80000F10704726212072204661720A2101F052
:101A900003B94DF808ED2046FFF788FC1621E071E8
:101AA000204621720921BAF1010F5DF808EB704759
:101AB0000120206010BD00204FF4A0618DF80B00C4
:101AC0008DF80F00ADF80910704701232146FFF78C
:101AD000A9BF04200821A0800020E071A07940F077
:101AE0008000A0712046FFF715BCB4F8050009215D
:101AF00000BA01EB104081B22046FFF760BCADF8A0
:101B000014004FF0FF3004907047012100F05CB8E2
:101B1000B8F1140F4FF014027047351D20462946C6
:101B2000FFF7F8BB40F225510122C0F800802046A3
:101B300000F019BC002040F6FF7170472046FFF707
:101B4000E9BB581D40F24C42B0FBF2F404FB12001A
:101B50007047CDF80600284638470123012729465B
:101B60002246FFF75FBF002701AD4FF6FF768046A4
:101B7000A0F108047047B0FBF6F101FB16007047B6
:101B8000421C884210467047204600F057BC204651
:101B90004FF4587100F073BB204640F2255100F01D
:101BA000CABB92B2531CB3FBF4F505FB1433704768
:101BB000044A002911680CBF21EA000008431060A4
:101BC000704700BF1C100240044A002911680CBF76
:101BD00021EA000008431060704700BF1010024067
:101BE000044A002911680CBF21EA00000843106074
:101BF000704700BF18100240044A002911680CBF4A
:101C000021EA000008431060704700BF0C1002403A
:101C100010B5E2490A6802F00C03B04A082B0BD158
:101C20000B680C68C3F383430233E40302D50C68EA
:101C3000A40300D5AA4A5A4302600E4C0B68C3F3B2
:101C40000313E35CDA4042600B68C3F30223E35CF6
:101C500022FA03F383600B68C3F3C223E35CDA4028
:101C6000054BC2600968C1F38131595CB2FBF1F1E7
:101C7000016110BD34520008205200084209074992
:101C8000012A03D0022A14BF24312031096800F050
:101C90001F0021FA00F000F0010070470010024020
:101CA00001490860704700BF8004424270B50023BC
:101CB000072281B10478013963400024072C08D839
:101CC0005DB25E00002D48BF82EA43063346013410
:101CD000F4E70130EDE7D8B270BD000070B586B012
:101CE000082001210826FFF77BFF4FF480400121E7
:101CF000FFF75EFF304C154804F55445059005A9E3
:101D00002846FFF773FD28464FF46041FFF70CFEAD
:101D100007200DF10201CDF80E60ADF812000C485D
:101D2000CDF80A004FF40030CDF806004FF0827075
:101D3000CDF80200204600F070F82046012100F0A6
:101D400059F8FF2000F006F806B070BD00E0031857
:101D50000100000270B5184C0546002620460221FD
:101D600000F052F850B9701CC82E0646F6D3204633
:101D7000022100F049F8014617A013E02046294649
:101D800000F049F800252046012100F03DF870B927
:101D9000681CC82D0546F6D32046012100F034F812
:101DA000014606A0C922FFF751FE002002E02046AE
:101DB00000F02FF8C0B270BD0038004053504932D7
:101DC0002052584E453A30782578207265747279E1
:101DD0003A25642E0A000000535049322054584ED0
:101DE000453A307825782072657472793A25642EE8
:101DF0000A000000002918BF0121028822F04002D9
:101E000042EA8111018070470089084018BF012013
:101E1000704780897047818170470A88038803F47E
:101E200041531A434B881A438B881A43CB881A4371
:101E30000B891A434B891A438B891A43CB891A435E
:101E40000280828B22F400628283098A01827047B9
:101E500010B586B08DF80E000F48022110228DF8C3
:101E60001310ADF80C10CDF80F200A2102900B488A
:101E700001900020059001ACA01DFFF717FF40F670
:101E800026218DF814002046ADF81510132100F01E
:101E9000F9FF06B010BD00BF0C00041024434D43F1
:101EA0003E48016801F00C020C49082A0BD1026877
:101EB0000368C2F383420232DB0302D503689B034B
:101EC00000D507495143074A074B11600068C0F32A
:101ED0000310185C21FA00F01060704700127A00BD
:101EE00000093D0020000020245200082B482C4A05
:101EF00050F8041C41F0010140F8041C0168114035
:101F0000284A016050F8041C114040F8041C50F8A5
:101F1000041C21F4802140F8041C016821F4FE0116
:101F200001604FF41F0141601F490A6842F010022E
:101F30000A600A6822F003020A600A6842F002029C
:101F40000A600168016001680160016841F4806114
:101F50000160016821F47C110160016841F46011A5
:101F6000016050F8041C41F0807140F8041C50F8E6
:101F7000041C8901FBD5016821F00301016001689F
:101F800041F002010160016801F00C010829FAD159
:101F900006484FF000610160704700BF0410024026
:101FA0000000FFF8FFFFF6FE0020024008ED00E011
:101FB000B0B5364C01210125204600F017F808B1D4
:101FC0000348057020460121BDE8B04000F002B88A
:101FD00060000020C94301827047002918BF012119
:101FE000028822F00102114401807047028A0A40EF
:101FF00018BF01228089084018BF01201040704797
:10200000002A82890CBF22EA0101114381817047B5
:10201000B0B51D4A0388904218BFB0F1804F25D15A
:102020004C8823F0700323431C4D40F48064AC4281
:1020300003D0CC8823F440732343038090428B88E1
:1020400083850B8803850CD0154A8305024443EA37
:102050009222052A07D8012303FA02F212F0390F5F
:1020600001D0097A018601218182B0BD074CA042CE
:10207000D6D0074CA042D3D0064CA042D0D0064CBC
:10208000A042CDD0D0E700BF002C014000040040AA
:102090000008004000340140000C004000140040E3
:1020A00000CCFEBF034A0021C18001800172C0F84C
:1020B000022070470000FFFFB0B59A4C082120466F
:1020C00000F034F918B1FFF762FDFFF75DFDFFF78F
:1020D00063FD98B1FFF758FD1E4940F24C444A8811
:1020E000FFF75FFD0D88AB4205D1581C021B18BFDE
:1020F00002460A80B0BD024C4B80A054B0BD00BF68
:102100006C5F0020B0B5884C0821204600F00EF925
:1021100018B1FFF73CFDFFF737FDFFF73DFDC0B1FC
:10212000204640F2255100F0AAF8FFF72DFD09499D
:1021300040F24C44CA88FFF734FD8D88AB4205D18C
:10214000581C021B18BF02468A80B0BD024CCB80CF
:10215000A054B0BDA800002004680020B0B5B64C63
:102160000821204600F0E2F838B120464FF45871BB
:1021700000F085F8204600F061F9204640F2255134
:1021800000F0D9F8F0B1204640F2255100F077F880
:10219000204600F053F90C494FF42F748A8892B20C
:1021A000531CB3FBF4F505FB14334C88A34206D152
:1021B000581CB0F52F7218BF02464A80B0BD034CC0
:1021C0008B80A054B0BD00BFB0000020B05C0020E8
:1021D000B0B5524C0821204600F0A8F838B120468E
:1021E0004FF4587100F04BF8204600F027F92046D4
:1021F00040F2255100F09FF8C0B1204600F01EF9D2
:102200000B4940F24C444A8892B2531CB3FBF4F59C
:1022100005FB14330D88AB4205D1581C021B18BFB7
:1022200002460A80B0BD034C4B80A054B0BD00BF35
:10223000A4000020B863002010B5394C08212046C6
:1022400000F074F838B120464FF4587100F017F8D8
:10225000204600F0F3F8204640F2255100F06BF8DC
:1022600048B1204640F2255100F009F82046BDE86B
:10227000104000F0E3B810BDC94301807047090A5F
:10228000012202FA01F1C94301807047002918BFF9
:102290000121828922F4005242EA41318181704752
:1022A00080B51E49884218D01D4988421CD01D495E
:1022B000884220D01C49884224D05F49884218BFF8
:1022C00080BD4FF480400121FFF796FC4FF4804021
:1022D0000021BDE88040FFF78FBC4FF40030FFF7CE
:1022E00014FC4FF4003013E04FF48020FFF70DFC96
:1022F0004FF480200CE04FF40020FFF706FC4FF471
:10230000002005E04FF48010FFF7FFFB4FF4801032
:102310000021BDE88040FFF757BC00BF00440040EB
:1023200000480040004C0040005000400088084039
:1023300018BF01207047C1F34212022A06D0012AB9
:1023400014BF00F1140200F10C0201E000F11002D0
:102350001288008801F01F03090ADA40C8401040C3
:1023600000F00100704710B501F01F03012404FACA
:1023700003F3C1F342141421022C08BF1021012CD5
:1023800008BF0C21002A42580CBF9A431A434250FE
:1023900010BD000070B586B004460D46C888218A7D
:1023A00021F4405108434EF6F3112082A0890840E1
:1023B000A98808432989084369890843A081A88915
:1023C000A18A21F440710843A08201AE3046FFF794
:1023D0001FFC194906F108006FF063038C4208BF27
:1023E00006F10C000068192101224843B4F90C10D1
:1023F000B1F1FF3FC8BF0222296803259140B0FB1D
:10240000F1F06421B0FBF1F202FB0300B4F90C30EF
:10241000B3F1FF3FC8BF0425A8403230B0FBF1F054
:102420000721B3F1FF3FC8BF0F21084040EA021067
:10243000208106B070BD00BF0038014080886FF376
:102440005F2070476FF35F2181807047F0B585B0E2
:102450001B4C02212046FEF751FD08B36A46204678
:102460000021FEF71DFE20460221FEF7ADFC1548B7
:1024700081884A09182A13D802889DE8E050531C25
:1024800002EB820200EB82020380083282E8E05015
:102490009AB2B2F5487F24BF0022028001318180C8
:1024A00020464FF48061FEF729FD012806D1204621
:1024B0004FF48061FEF788FCFEF7E8FA05B0F0BD46
:1024C00000640040880E002002F092BA70B5044605
:1024D0000DA02146FFF7BAFA00F0EAF800F09EF8E6
:1024E000B84D0020B84E28602020B047C4F3071034
:1024F000B0472001C0B2B0470020B047012028609B
:10250000BDE8704000F08AB85350495F464C4153D3
:10251000482065726173653A25780D0A0000000055
:10252000BCB5102001210125FFF75AFB0C480D4CCA
:102530004FF4007101902046FFF7F6F901A92046FB
:10254000FFF754F908480560FFF7C8FB00F040F8B2
:1025500001460648018006A0FFF778FABCBD00BF1F
:102560000002031000100140A401224224000020B8
:102570005350495F464C4153482063686970206955
:10258000643A307825782E0A000000002DE9F041E9
:102590000D468C49064600208B4F144608600320E8
:1025A0008846B847C6F30740B847C6F30720B84780
:1025B000F0B2B84734B1FF20FFF7CCFB05F8010BB0
:1025C000013CF7E70120C8F80000BDE8F08100BF3A
:1025D00070B57C4D00207C4E28609020B0470020D4
:1025E000B0470020B0470020B047FF20B047044666
:1025F000FF20B047012140EA0420296070BD00BFE0
:1026000010B5704C002020600520FFF7A3FBFF20D1
:10261000FFF7A0FB0121216010BD00BFB0B5002471
:1026200042F20F75FFF7ECFFC00703D0AC4206D8AB
:102630000134F7E742F21070844238BFB0BD02A007
:10264000BDE8B040FFF702BA773235717878206282
:1026500075737920657272210A0000002DE9F84334
:10266000064601201446884600EB163930466FF3C3
:102670001F30C0F58057974228BF1746BDB240466D
:1026800031462A4600F01EF8A0B2A84208BFBDE8B5
:10269000F8834846FFF71AFFE41B2E44A84409F1CB
:1026A0000109A7B2B7F5805F28BF4FF48057E5E76F
:1026B00010B5444C002020600620FFF74BFBFFF7CD
:1026C000F7B900BF2DE9F84F0646C8B2DFF890A071
:1026D00093460D460FF264080FF28809C0F5807426
:1026E000944228BF1446A7B2404629463A46FFF70F
:1026F000ADF9304629463A4600F040F828465146A2
:102700003A46FFF743FF304651463A46FDF750FD43
:1027100010B14846FFF79AF91FFA8BF0B84208BF8C
:10272000BDE8F88FABEB040B3D443E441FFA8BF43D
:10273000B4F5807F28BF4FF48074D4E75350495FCD
:10274000464C415348207772697465206164647215
:102750003A2564206C656E3A25642E0A000000005C
:10276000786C00205350495F464C415348207772A3
:10277000697465204572722121210A002DE9F0411A
:1027800014460E460546FFF793FF0E4900200E4FF4
:10279000086002208846B847C6F30740B847C6F32A
:1027A0000720B847F0B2B8472CB115F8010BFFF776
:1027B000D1FA013CF8E70120C8F80000BDE8F0417B
:1027C000FFF72CBFA4012242551D000810B5044696
:1027D0000120FFF765FA6120FFF750FA0028FAD0D0
:1027E00045F25550FFF718F90120FFF7FBF80028D4
:1027F000FAD10520FFF704F90220FFF7F3F80028CB
:10280000FAD104EB8400C0F31811C20040F6FF7047
:10281000814238BFD009FFF7F9F80020FFF7FCF834
:10282000BDE81040FFF7D8B80D48BFF34F8F0D4AF1
:10283000016801F4E06111430160BFF34F8F00BFF5
:10284000FDE700BF0648BFF34F8F064A016801F459
:10285000E06111430160BFF34F8F00BFFDE700BF90
:102860000CED00E00400FA05F8B50648019005A05B
:10287000416800890291ADF80C0001A80A2100F01E
:102880009DF98FBD6831CE68020235353D160000D6
:1028900080B5000BFFF71AFE042080BD80B59200C2
:1028A00092B2FFF7DBFE042080BD4FF6FF72B1B19C
:1028B000F0B500234EF22A348B420ED0C55C6A403C
:1028C0000025072D07D884EA5206D70708BF560807
:1028D00001353246F5E70133EEE7BDE8F04090B24E
:1028E0007047000010B51BA0FFF7B0F81C4C1DA0EE
:1028F0002178FFF7ABF82078C00702D01FA0FFF7C0
:10290000A5F82078800702D51FA0FFF79FF8207850
:10291000400702D51FA0FFF799F82078000702D5DD
:1029200020A0FFF793F82078C00602D520A0FFF77B
:102930008DF894F90000B0F1FF3F04DD2248BDE8B6
:102940001040FFF783B8D4F80F101BA0BDE810406B
:10295000FFF77CB8627573206661756C743A0A0083
:1029600029ED00E05343425F434653525F424653D2
:10297000523A3078253032582000000049425553F1
:1029800045525220000000005052454349534552E1
:1029900052200000494D5052454349534552522060
:1029A00000000000554E53544B4552522000000089
:1029B00053544B45525220005343422D3E42464110
:1029C000523A253038580A00DC54000810B500236C
:1029D00021B110F8014B01392344F9E7D8B2801A2C
:1029E00018BF012010BD000070B586B0054644F246
:1029F00024000121FFF7F4F8274C2046FFF750FC94
:102A0000D748019503900020ADF810004FF4805096
:102A1000029001A92046FFF7BDFC1348A4F54055DC
:102A2000059005AE28463146FEF7E0FE0F483146D8
:102A300005902846FEF7DAFE204640F22551012295
:102A4000FFF791FCCB482021016020460121FFF7D0
:102A50001DFC20464021FFF70FFC20468021FFF798
:102A60000BFC06B070BD00BF000203180004034851
:102A7000B0B5094C054620468021FFF757FC0028D9
:102A8000F9D020462946FFF7DDFC20464021FFF71C
:102A90004DFC0028F9D0B0BD00380140B0B50C465F
:102AA00005462CB115F8010BFFF7E2FF013CF8E7F2
:102AB000B0BD00002DE9F04385B005464FF400207D
:102AC00001214FF00108FFF773F83C200121FFF7C7
:102AD00087F8394C2046FFF7E3FBA1484FF0000987
:102AE00069460095ADF80C9002904FF4805001902B
:102AF0002046FFF74FFCD64804F544469A4F049011
:102B000004AD30462946B847D2482946049030469D
:102B1000B8471A4804F54046294604903046B8475D
:102B200030468021FEF7FEFE15482946049004F544
:102B30004840B8472E482946C0F8009011480490F4
:102B40003046B84710482946049004F54C40B84731
:102B50000E48FEF7E7FF87484FF4801101602046DA
:102B60000121FFF793FB20464021FFF785FB20461C
:102B70008021FFF781FB05B0BDE8F08380000210E3
:102B8000002003102000021400400210B80123426C
:102B9000B0B5094C054620468021FFF7C7FB002849
:102BA000F9D020462946FFF74DFC20464021FFF78B
:102BB000BDFB0028F9D0B0BD004C0040F8B50C4674
:102BC000054607A0FEF7C9FF094E37602CB115F87E
:102BD000010BFFF7DDFF013CF8E700203060F8BD96
:102BE0004255535F4F544120424D533A000000007C
:102BF000B481224270B586B004464FF40030012102
:102C0000FEF7D6FF04200121FEF7EAFF54480194A5
:102C1000204C03900020ADF810004FF4805002903B
:102C200001A92046FFF7B6FB0E4804F54445059080
:102C300005AE28463146FEF7D9FD0B4831460590D2
:102C40002846FEF7D3FD204640F225510122FFF72A
:102C50008AFB48484021016020460121FFF716FB0E
:102C600006B070BD0400031808000348B0B5094C55
:102C7000054620468021FFF759FB0028F9D0204661
:102C80002946FFF7DFFB20464021FFF74FFB0028D6
:102C9000F9D0B0BD00440040B0B50C46054607A0D1
:102CA000012329462246FEF7BDFE2CB115F8010B83
:102CB000FFF7DCFF013CF8E7B0BD00BF434D435FC9
:102CC0004F54412073656E643A0000002DE9F041D5
:102CD00086B0054630200121FEF782FF4FF48010B8
:102CE0000121FEF765FF2E4C2046FFF7D9FA1C485C
:102CF0004FF000080195ADF8108003904FF480501C
:102D0000029001A92046FFF745FB1648164F059093
:102D100005AD04F540402946B847144804F544463B
:102D2000294605903046B847114829460590304657
:102D3000B8472948FEF7F6FE0E484FF4001101602F
:102D400020460121FFF7A2FA20464021FFF794FA1E
:102D500020468021FFF790FA06B0BDE8F08100BF61
:102D600000040C0000100318ED17000804000348CD
:102D70000010031004E100E0B0B5094C0546204600
:102D80008021FFF7D3FA0028F9D020462946FFF723
:102D900059FB20464021FFF7C9FA0028F9D0B0BD01
:102DA00000500040F8B50C46054607A0FEF7D5FEDA
:102DB000094E37602CB115F8010BFFF7DDFF013C20
:102DC000F8E700203060F8BD4255535F4F54412072
:102DD000464F433A00000000B081224270B586B0F1
:102DE00005464FF480200121FEF7E2FE0820012174
:102DF000FEF7F6FE224C2046FFF752FA4FF4402031
:102E0000019503900020ADF81000029001A9204622
:102E1000FFF7C0FA0E4804F54445059005AE284674
:102E20003146FEF7E3FC0B48314605902846FEF795
:102E3000DDFC20460121FFF729FA20464021FFF75B
:102E40001BFA20468021FFF717FA06B070BD00BFBD
:102E50000004031800080348B0B5094C0546204695
:102E60008021FFF763FA0028F9D020462946FFF7B2
:102E7000E9FA20464021FFF759FA0028F9D0B0BD01
:102E800000480040B0B50C4605462CB115F8010BC2
:102E9000FFF7E2FF013CF8E7B0BD00002DE9F84F75
:102EA000814623A04946FEF7D1FD294F2BA607F501
:102EB000C824BA46A7420FD2384600F05FF805464C
:102EC00030463946FEF7C2FD07F50067042DF1D004
:102ED00025A0FEF7BBFD28E0FEF788FB1E481D4D30
:102EE00000264FF001084C4683464E451AD227462D
:102EF000B4F5806F3046294628BF4FF480673A46C4
:102F0000FFF744FBB80756444FEA9702294630467C
:102F100018BF08EB970200F043F858465E44A4F54A
:102F20008064E2E7FEF708FB04252846BDE8F88F39
:102F30005354415254204241434B555020434F502B
:102F40005920544F204150503A256C642E0A0000FD
:102F500000700008786C00200094FFF765726173C0
:102F6000652025782E0A0000657261736520617006
:102F700070206572726F722E0A00000010B572B672
:102F80000446FEF733FB3420FEF762FA2046FEF7D4
:102F900069FA0446FEF7D0FA62B6204610BD00007A
:102FA000F8B572B614460E460746FEF71FFB00251D
:102FB000AC420CD03420FEF74BFA56F825103846B8
:102FC000FEF7C4FA042807D104370135F0E7FEF70D
:102FD000B3FA62B60420F8BD014603A02A46FEF704
:102FE00035FD0520F8BD00BF466C61736820737421
:102FF000617475733A25642C693A25642E0A0000C1
:10300000B0B5284D297902290AD170B16879012813
:103010000DD0022810D1AA680020FDF765FC09E058
:1030200021A0BDE8B040FEF711BDE9680DE0A96838
:10303000FDF71EFC044600E00024697922A0224628
:10304000FEF704FDE9688C422BD129A0FEF7FEFCB7
:10305000A868FFF723FF042823D12BA0FEF7F6FC76
:1030600068792D4C012807D002280BD1AA680020CE
:103070002146FEF785F903E0A9682046FEF761F9CD
:10308000014600E00021E86888420AD123A0FEF74B
:10309000DDFCFEF7E9FC204600F04AF808B1BE4826
:1030A000BFE7B0BD60000020666C6173685F636F4E
:1030B000707920666C616720657272207265747524
:1030C000726E2E0A000000004241434B55502043CF
:1030D000524320545950453A6372635F7479706566
:1030E0003A25642D4352433A307825782E0A000061
:1030F0004241434B555020435243204F4B3A307886
:1031000025782E0A00000000666C6173685F636FAB
:103110007079204F4B2E0A0000700008415050205B
:10312000435243204F4B3A307825782E0A00000056
:1031300010B5044600680C490840B0F1005F1CBFA0
:10314000FF2010BD01F0BEFC012080F3108807496C
:1031500080F3138872B660680860206880F308887E
:1031600008688047002010BD0000F02F646C00202C
:10317000FEF796FEFEF72EF9FEF734F9FFF7D0F9C9
:103180004FF41650FFF796FC4FF41650FFF79EFDD4
:103190004FF4E120FFF728FC4FF4E130FFF72AFD60
:1031A0004FF4FA20FFF71AFEFDF770FC00F0BCFCAC
:1031B00000F0D4FC6048634D6049614A00682B1DF3
:1031C0000968126807C347F23050FFF7FFFA287901
:1031D000022809D0012812D164480121FEF766FBBC
:1031E00063A0FEF733FC1DE057A0FEF72FFC012083
:1031F000FFF706FF5D480121FEF758FB12E0654826
:10320000FFF796FF10B16448FEF720FC57480121F4
:10321000FEF74CFB614C624E2046B0472046B0475B
:1032200060A0B04700F064F90F2600272878E8B1C5
:10323000002028706878FEF70BFE0137F8B20A28E4
:103240000AD369885EA0FEF701FC68880027013078
:10325000688080B21E2860D20136F0B2142805D3EF
:103260005F48FEF7F3FBFFF7FFFA0026FEF7C2FB0D
:10327000FDF7AAFF8246FDF7D1FC8046FEF7F6F97E
:103280008346FDF76DFB81465848808808B100F001
:1032900063F9B8F1060F0FDB584EFEF739FC54A066
:1032A000B8BF424601233146FEF7BCFB30464146DB
:1032B000012200F0ABFF0026BBF1060F0CDB514CE6
:1032C000FEF726FC4E48B8BF4246FEF7FEFB2046FE
:1032D0005946022200F09AFFBAF1060F0BDB4B4C65
:1032E000FEF716FC4848B8BF4246FEF7EEFB204604
:1032F000514601F067F9B9F1070F97DB454C1420EF
:10330000B8F1140FA8BF804642464148FEF7DDFBE6
:103310002046494600F092FD88E73248FEF796FBCA
:1033200028796F80012804D12F48FEF78FFBFEF724
:103330009BFBFFF779FA00BF0068000804680008EB
:1033400008680008600000204E6F7720696E2042F8
:103350006F6F744C6F61646572204D6F6465204FB0
:1033600054415F434F50592E0A00000000023000C4
:103370004E6F7720696E20426F6F744C6F61646589
:1033800072204D6F6465204F54415F535441525435
:103390002E0A000000700008925200084A520008ED
:1033A0004D1A00084E6F7720696E20426F6F744C83
:1033B0006F61646572204D6F64652E0A0000000025
:1033C000696E626F6F74206F76657274696D6520C7
:1033D000636F756E743A25642D36302E0A00000036
:1033E000B4520008685200087A520008880E002083
:1033F000424D532052656376203A0000CC4F0020A6
:10340000CF52000864580020C4520008185400200D
:10341000DA520008104D002010B518A0FEF716FB78
:103420001B4C1CA02178FEF711FB2078C00702D0AE
:103430001EA0FEF70BFB2078800702D51EA0FEF72A
:1034400005FB2078000702D51EA0FEF7FFFA2078C2
:10345000C00602D51EA0FEF7F9FA94F90000B0F1FB
:10346000FF3F04DD2148BDE81040FEF7EFBAE168F8
:103470001AA0BDE81040FEF7E9BA00BF6D656D20E7
:103480006D616E616765206661756C743A0A000053
:1034900028ED00E05343425F434653525F4D46538D
:1034A000523A3078253032582000000049414343D9
:1034B00056494F4C200000004441434356494F4C6D
:1034C000200000004D554E53544B455252200000F1
:1034D0004D53544B45525220000000005343422D9F
:1034E0003E4D4D41523A253038580A00DC54000810
:1034F0002DE9FC41302001214FF00108FEF770FB5F
:103500000E48104C104FC0F800800D48019001ADDE
:1035100004F580602946B8470C4E002029463060EB
:103520000B4801902046B8470A48C6F81C80294637
:1035300001902046B847BDE8FC8100BFBC81224213
:103540000080021000100140ED1700089C0122428B
:1035500080000210004002102DE9F0438BB0DFF82C
:1035600074048188002900F0318272B641884A1CB7
:1035700001EB810100EB8101428001F108068969BC
:1035800078CE06AF0A9191B278C7B1F5487F24BFD3
:10359000002141808188013981804EF6054162B663
:1035A000DDF81C80C8F31120884266D04EF6053144
:1035B000884200F0A7804EF20501884240F0068262
:1035C0009DF823109DF82400012908BFFF2800F072
:1035D000F9809DF82820022908BFFF2A00F01A81EF
:1035E000032908BFFF2A40F0F181DFF8F413DFF868
:1035F000F4530020DF4C0880297B002900F069810A
:10360000686800210026A0F580620020FDF76CF9B3
:10361000DFF8C4730246A968B860DFF85404FEF707
:1036200015FAB868A968814240F08F810FF24440D2
:10363000FEF70CFA4EF601408DF816608DF80F601B
:103640000294FEF75CFA01A800F10B01204600F09D
:1036500023FADFF8F80E0221017029784170D5E9CC
:103660000121A2F58062C0E9012100F0A5FB002044
:103670000BB0BDE8F043FFF7C3BC9DF82300102852
:1036800040F0A4819DF82A00BDF82810D24C41EAF0
:1036900000404EF601418842A06140F09B80D04836
:1036A00000269DF8261001229DF8273022800680F2
:1036B000BDF8240093292371C4E9070128BF932191
:1036C0001120A1708DF81330ADF811208DF8101075
:1036D0008DF80F00D64868F30F20029001A90B3136
:1036E00003B9E2704EF601428DF81660ADF8142071
:1036F00000F0D2F92179D7A0FEF7A8F9C4E909664C
:10370000266163E1DFF8D09299F80000002800F00C
:103710005D81D9E909039DF82220D9F81010002510
:10372000104403F1010CC9E9090CAC48441806A87F
:1037300000F10C074B19681C904209D21E094A2E51
:1037400006D87E5D0133C9F8103066550546F1E7AD
:10375000C9F80C0099F8010099F80210013089F8B5
:103760000100C0B2884240F031819D49002089F8B3
:1037700001000880D9F81C108B4277D2D9F82010AC
:10378000A1EB0C01932928BF93218DF812008DF82D
:1037900016004EF6014089F802108DF81010112223
:1037A000ADF81400A2488DF80F209DF8232068F38F
:1037B0000F20013202908DF8112099F804208DF825
:1037C0001320FFE084480021C170854801808548AE
:1037D0000173FBE00020FF2120708DF816004EF6EB
:1037E0000540CDF80F102179ADF8140090488DF800
:1037F000131068F30F20029001A90B3100F04CF96F
:103800008CA04EF601414EF605420BB0BDE8F043E8
:10381000FEF71CB9734C02219DF826209DF8273035
:10382000DFF8B481002721709DF82510A760C8F843
:10383000147040EA012040EA024040EA03619348E4
:103840006160FEF703F9664827730024002588F8B5
:1038500003700780B7EBD54F26D12846FFF718F83D
:10386000042818D1013405F58055F3E7C9F8100094
:1038700099F8040099F80310012808BF002930D0F6
:10388000022846D3002944D15649097B002900F07B
:103890009D80554945E006467D48FEF7D7F87D48AE
:1038A00031462246FEF7D2F84EF601400024ADF82C
:1038B00014004FF0FF308DF816408DF80F40049043
:1038C0006A48029001A90B3100F0E6F8C8F80840F8
:1038D0007CE08DF816004EF60140FEF710F902204C
:1038E0003AE03E4801F028F8421E0020042A3BD866
:1038F0001221DFE802F003423B3D4100394C022037
:1039000002212070354801F069F8A06000210120F3
:1039100033E001295AD13349097B002956D04FF4AD
:103920007E3101EB802431A0A10AFEF78FF8D9F88F
:103930001C00012182074FEA900218BF01EB9002A0
:1039400026492046FEF7AAFF1CE04EF601408DF8FE
:103950001660FEF7D4F801208DF80F00029401A83C
:1039600000F10B0120462FE0002108E0132104E0C4
:10397000112102E005FFE81814211A4A107322A051
:10398000FEF764F8D9F81400D9F81C10084415495A
:10399000C9F81400496829B164225043B0FBF1F022
:1039A000214908701320D9E909128DF80F001F482A
:1039B000ADF810108DF81220CDF813001C4868F3F4
:1039C0000F20029001A90B3100F066F80BB0BDE8A2
:1039D000F08300BF880E002078000020787000205F
:1039E00062000020686C002000F8FFFF43414E5F3A
:1039F0004F5441207361766520706167653A256494
:103A00002E2E2E0A0000000043414E5F4F544120ED
:103A100042494E20636865636B636F64653A25783D
:103A20002E2E2E0A0000000061000020FF01EC0095
:103A30000500EC1C43414E5F4F544120494150204A
:103A400050474E3A25642C204552523A25642E2E7A
:103A50002E0A000043414E5F4F54412052656320BF
:103A6000706167653A25642E2E2E0A0005FFE8185E
:103A7000A257000843414E5F4F5441204352432018
:103A8000636865636B204F4B2E0A000045570008A2
:103A9000855700085D5700082DE9F04186B00822DF
:103AA000029000208DF80E200422ADF80C2001AA0F
:103AB000082804D00C5C13180130DC72F8E71948B0
:103AC000FEF751F820462946FDF739FB042803D1BB
:103AD000791CB7420F46F5D368B1012815D00228EA
:103AE0001CD1FEF727F8D8F80020D20016D4FEF734
:103AF00047F8F8D312E0FEF71DF8D8F8002052017D
:103B00000CD4FEF73DF8F8D308E0FEF713F8D8F828
:103B10000020120102D4FEF733F8F8D306B0BDE856
:103B2000F08100BF08640040FEB56846FEF770F8FB
:103B300010200121FEF754F805480590054805A915
:103B4000FDF754FE04480021016006B080BD00BFAF
:103B500008000310001001408C012242BFB5164C32
:103B60002046FEF755F802200121FEF721F80DF15D
:103B700006052846FEF796FA002042F21071ADF8CD
:103B80000C000E48029060680D4CB0FBF1F0294625
:103B90000138ADF806002046FEF73AFA204601212A
:103BA0000122FEF72DFA20460121FEF716FA0548FC
:103BB0004FF000510160BFBD506C00200000E703D2
:103BC0000004004000E100E0F8B51E46144605463A
:103BD00011B114A001F01CF8012E0BD0022E13D04D
:103BE000042E19D112A602CD304601F011F8013C85
:103BF000F9D111E0002712A6A7420DDAE95D30469F
:103C000001F006F80137F7E70BA635F8021B30463E
:103C100000F0FEFF013CF8D10A20BDE8F84001F0B9
:103C200003B800BF4030782530386C5820000000C1
:103C3000202530384C580000202530345800000032
:103C400020253032580000007FB5054614488DF815
:103C50000D100DF106060C468DF80C50CDF806003F
:103C60000020ADF80E006FF03500002908BF6FF09E
:103C700075008DF80A0008210A4800788DF80B00BD
:103C80003046FCF7F9FEFDF7F6FE0A21FEF706FFC7
:103C900005A02946224604B0BDE87040FDF7D6BE17
:103CA0005AA50006B00000203D3D424C455F4F54F0
:103CB000412041434B20636D643A256420636F6467
:103CC000653A2564200A0000BFB504468A200DF13C
:103CD000070507218DF80B000F488DF80D40CDF832
:103CE00007000020ADF80E000C4800788DF80C009D
:103CF0002846FCF7C1FE96218DF80E0028468DF867
:103D00000F100921FEF7CAFE05A0214604B0BDE848
:103D1000B040FDF79BBE00BF5AA50005B0000020D3
:103D20003D3D424C455F4F54412041434B20636D24
:103D3000643A2564200A00007FB505468A208DF884
:103D40000D100C460A218DF8080011488DF80C5012
:103D500001900020ADF80E0003208DF80A00280A1B
:103D60008DF80B000B4800788DF8090001AE304645
:103D7000FCF782FEFDF77FFE0C21FEF78FFE06A00A
:103D80002946224604B0BDE87040FDF75FBE00BF83
:103D90005AA50008B00000203D3D424C455F4F54FD
:103DA000412041434B207061636B3A256420636F6F
:103DB00064653A2564200A00B0B50B4C2046FFF735
:103DC000DDF80AA0FDF742FE144D15A015F8041FFA
:103DD000AB686A78FDF73AFE204629460322BDE823
:103DE000B040FFF7DDB800BF006800082A2A2A2A81
:103DF0002A2A2A2A2A626F6F7420737461207365DD
:103E0000742A2A2A2A2A2A2A2A2A2A2A2A2A2A2AC8
:103E10002A2A2A2A2A2A2A2A2A0A0000600000209E
:103E20006F74615F7374615F696E666C6173683A29
:103E300025782C25782C25780D0A00002DE9F843EB
:103E4000054600790A2824D16879052801D0102870
:103E500021D1DFF8FC9289F80000A8790138032805
:103E600000F205810FF20401DFE800F0021B2A4B8B
:103E70000120FFF729FFB7490020C9E903000880A6
:103E80004FF0FF31A9F80610B3490873DFF8740347
:103E900003E0AAA001E0DFF87003BDE8F843FDF7F6
:103EA000D5BD0020C9F80800D5F8070001BAAA4816
:103EB00041606A79052A66D0102A66D1012263E042
:103EC000A4480021B9F80630018068886FF0060127
:103ED00000BA01EB1046D9F80800B5F807103246D1
:103EE0003044C9F8080008BA040CBD482146FDF763
:103EF000ADFDB9F80600A0423AD1BD48FDF7A6FDD8
:103F0000A4E09448944E00210180307BC8B3D9F8D6
:103F10000C20F2B1D9F81010D9B190A0FDF796FDA0
:103F2000D9F80C409A4D9B4928462246FCF71CF9CB
:103F30000120A208A10718BF00EB9402D9F81000D5
:103F4000954901EB80202946FEF7A8FC93A0FDF7D8
:103F50007DFD3078012800F08C80022840F09180AF
:103F600070680021A0F580620020FCF7BDFC86E0AF
:103F7000D9F80C0040F6C41187198F422FD39B4803
:103F80008BE79648A0E00222027000270773876043
:103F90009948FDF75BFD6F4800240025C9E90377C8
:103FA00007804FF0FF30A9F80600B7EBD54F11D1CD
:103FB0002846FEF76DFC042803D1013405F5805531
:103FC000F3E706468D48FDF741FD8D483146224610
:103FD000FDF73CFD0220BDE8F843FFF775BEDFF8B2
:103FE000B48105F1090132464044FCF7BDF8B7F54C
:103FF000806FC9F80C7029D3654841464FF4806240
:10400000FCF7B2F8A7F5806208F580614046C9F870
:104010000C20FCF7A9F8D9F8100000285CD04E4914
:10402000097B00296FD05C494FF4807201EB80203E
:104030005749FEF733FC0246D9F810106948FDF7DE
:1040400005FDD9F810000130C9F810000021204604
:10405000A9F80640FFF770FE3F48406838B1D9F82C
:10406000081064225143B1FBF0F062490870BDE8CA
:10407000F8837068A0F580610020FCF7F9FB044626
:1040800000E00024B16851482246FDF7DFFCB0682B
:10409000A04218D104200021FFF7D6FD4D48FDF7BE
:1040A000D5FC4D480221017031784170D6E90121DB
:1040B000A2F58062C0E90121FFF77EFE0020BDE885
:1040C000F843FEF79DBF4248FDF7C0FC04202021C5
:1040D000BDE8F843FFF7B8BD0120C9F810002C482F
:1040E00000F02AFC01380428B0D8DFE800F0030E05
:1040F000100C120099F8000005280CD010280ED1E1
:104100001548012109E01121A1E712219FE71321A0
:104110009DE714219BE710480221017001E00E4841
:1041200001780D4D01202873194800F057FC024614
:10413000A86029782C48FDF789FC87E7424C455F49
:104140004F544120636D64206572726F720A0000E3
:10415000B000002062000020686C0020424C455FE7
:104160004F54412044422C2020746865206C6173B8
:1041700074207061636B2077726974652070616769
:10418000653A25642C6C656E3A25640A00000000CF
:10419000C4000020C404002000FCFFFF424C455F27
:1041A0004F54412044422C2020746865206C617378
:1041B00074207061636B2077726974652070616729
:1041C000652066696E6973680A000000A0540008E3
:1041D0002D5300080C5400086400002048530008C8
:1041E00078530008B0530008815400086253000857
:1041F0006854000861000020155300084B54000863
:1042000023540008EE530008C85400082DE9F04775
:10421000044600799246332866D0112822D02228FD
:1042200018BF322816D16079A17941EA002505F13D
:10423000090081B22046FDF7C2F8002120B34FF4F7
:10424000D170A1710721A080FDF723FC5CD1FEF79E
:10425000B5FC5BE0102803D16079002800F0D7801E
:10426000BDE8F087FDF741FC002800F07B800020CE
:104270000721A07140F2D110A080FDF70AFC40F0A8
:10428000BC80FEF79BFCBAE09B48E6796F1E3A467D
:104290000180B5483146FDF7D9FBDFF86092642014
:1042A00001227043D9F8041002EB9121B0FBF1F028
:1042B000AE490870C1B2AEA0FDF7C8FBDFF8C882F6
:1042C00098F80000B04223D1B448FDF7BFFB0020AE
:1042D0000721A0714FF4D970A080FDF7DAFB40F000
:1042E0009080FEF76BFC8EE0FDF7FFFB002856D0B8
:1042F0000020A07140F2A3100721A080FDF7C9FBA8
:104300002CD1FEF75BFC2BE0FEF74CFDA148E7E06B
:10431000012E40F0978004F10807384600F00CFBAE
:1043200001469B48FDF792FB384600F005FB01383B
:10433000042800F29A801221DFE800F00403D6D8A6
:10434000DA007CE701253846012189F8005000F0A9
:1043500045FB89F80C50C9F80800B8E7FEF722FDC4
:104360006448BDE06548012100250170D4F80710BC
:10437000057309BAC0E901158B48FDF767FB5E4874
:10438000002600270580B5EBD74F79D13846FEF7D8
:104390007FFA04286FD1013607F58057F3E75649B5
:1043A000564D00200880297B0029A2D0686800278C
:1043B000A0F580610020FCF75BFA0646A96850A0D2
:1043C0003246FDF743FBA868B0426FD15F48022137
:1043D0000170297841706968A1F58061C0E9011612
:1043E000FFF7EAFC40F2B3100721A771A080FDF7A8
:1043F00050FB68D1FEF7E2FB67E0FEF7D3FC6948AB
:104400006EE0FEF7CFFC664888F8006068E03A4846
:104410000025058067A0FDF719FB2079062165714D
:1044200040F0800020712046FCF7C0FF1621A071EB
:104430002046E1710821BAF1010F33D1BDE8F04700
:10444000FEF7BCBB99F80C00D8B30120BA08B90735
:1044500018BF00EB97024D4804F1080100EB8620DD
:10446000FEF71CFA04283FF432AF4B483146BDE852
:10447000F047FDF7EBBA01464C483246FDF7E6FA45
:1044800001200721A4F80500207940F08000207168
:10449000FDF7FFFA02D1FEF791FB01E0FEF782FC87
:1044A00043481DE0BDE8F047FEF77CBC40F2A31096
:1044B0000721A771A080FDF7ECFA0ED1FEF77EFB75
:1044C0000DE00021BBE6FEF76DFC21A0FDF7BEFA72
:1044D0000020BDE8F047FEF793BDFEF763FC14A093
:1044E000BDE8F047FDF7B2BA1321A8E61121A6E610
:1044F0001421A4E62756000862000020686C002002
:104500004255535F4F5441202D2D2D2D6372633141
:1045100036656332353D307825782D2D2D637263F5
:1045200031366D63753D307825782E0A0000000025
:104530004255535F4F5441204241434B5550204315
:104540005243204552522E0A000000006400002011
:104550004255535F4F544120436D642030783333CC
:10456000204F4B2E0A0000009B56000861000020DF
:104570004255535F4F5441206F74615F726174659F
:104580003A25642E0A0000005800002000F8FFFFC2
:10459000BB560008EB5600081D57000804570008DA
:1045A00057560008D25600080F5600086D560008EE
:1045B000415600084255535F4F5441205253540D09
:1045C0000A0000002DE9F84386880446B01D8842A1
:1045D00001D9BDE8F883A079072836D0062877D01E
:1045E0000528F6D1FDF799FA615D884240F0B08068
:1045F000A2484FF000080121A0F800809648017001
:10460000D4F8071080F80C80C0E90118C548FDF700
:104610001DFAB4F80B108F4DC3482980FDF716FA28
:104620002888102801D00628D3D100250026B8EB11
:10463000D64F40F0C7803046FEF72AF9042840F0F4
:10464000B880013506F58056F1E7824800881028C9
:1046500001D00628BDD1804F387B002800F0818032
:10466000FDF75BFA615D88427ED1844800260680B2
:104670007868A0F580610020FCF7FAF80546B96873
:104680007FA02A46FDF7E2F9B868A84240F0A08072
:10469000884802210170397841707968A1F58061FC
:1046A000C0E90115FFF788FB04200821E671A0800E
:1046B000A07940F08000A071FDF740FAFDF7E2F923
:1046C0007DA0FDF7C3F90020BDE8F843FEF798BCD4
:1046D00060480088102802D006287FF47AAFFDF7E2
:1046E0001CFA615D884240F09C8064480021B4F867
:1046F0000720073E0180607AA17A42EA00477448A9
:10470000324647EA01652946FDF7A0F9DFF84891EE
:10471000642001226843D9F8041002EB9121B0FB18
:10472000F1F06C490870C1B26BA0FDF78FF9DFF8AA
:10473000C081D8F80000A8421FD17648FDF786F95D
:10474000FDF7C7F9FDF79EF97348C8F8005076E009
:10475000724808216060FDF7F1F9FDF793F97048A0
:104760006DE05A4860603BE03C4808216060FDF71E
:10477000E5F9FDF787F93AA061E0012D38D104F1A0
:104780000B06304600F0D8F8411E042943D8122009
:10479000DFE801F00348595B5D0001273046012145
:1047A00089F8007000F01AF989F80C70C9F808004F
:1047B000C6E707465D48FDF749F95D4839462A4690
:1047C000FDF744F9FDF785F9FDF75CF9594836E046
:1047D0000420A0801020E071A07940F0C000A071FA
:1047E00020460821FCF796FDFDF74CF9304826E0FD
:1047F00099F80C00A8B10120B208B10718BF00EB6E
:1048000096023C4804F10B0100EB8720FEF746F8C6
:1048100004283FF495AF3E482946BDE8F843FDF72C
:1048200015B98020E071A0790421A180082140F011
:10483000C000A071FDF782F9FDF724F92EA0BDE8B4
:10484000F843FDF703B91320ECE71120EAE7142041
:10485000E8E700BF28750020686C00200400C780CE
:10486000434D435F4F544120436D642030783720DF
:104870004572726F722E2E0A000000006200002046
:10488000434D435F4F5441202D2D2D2D63726331D5
:1048900036656332353D307825782D2D2D63726372
:1048A00031366D63753D307825782E0A00000000A2
:1048B0008055000864000020434D435F4F54412061
:1048C000307837204F4B2E0A000000000400C7103C
:1048D0004855000861000020434D435F4F5441207C
:1048E0006F74615F726174653A25642E0A0000007E
:1048F0005C00002000F8FFFF434D435F4F54412010
:10490000436D6420307836204572726F722E0A0033
:10491000E7550008BB5500080B5500080400C5808A
:1049200068550008DE540008D45500089E5500085C
:1049300020550008F6540008B0B5B0F8FE5340F218
:10494000FE310446FDF7B1FF024616A029461023AA
:10495000FDF77CF8204640F2FE31FDF7A6FF8542C8
:104960001CBF0520B0BD1C4920461022FBF720FCCF
:1049700008B10420B0BD207C102811D1607CEF2844
:104980000ED104F112010022102A04BF0320B0BD91
:10499000885C013240064FF0010048BFB0BDF3E72C
:1049A0000220B0BD5041434B5F434845434B206814
:1049B000656164206372633A307825782063616CA6
:1049C0005F6372633A3078257820626173653A30AC
:1049D0007825782E0A0000000D000020022904D05E
:1049E000012914BF0020408C7047406A70470000C6
:1049F00010B518A0FDF72AF81A4C1BA02188FDF766
:104A000025F82088C00702D01DA0FDF71FF82088D8
:104A1000800702D51DA0FDF719F82088400702D5B0
:104A20001DA0FDF713F82088000702D51CA0FDF794
:104A30000DF82088C00502D51BA0FDF707F82088D7
:104A4000800502D51BA0FDF701F81D48BDE8104008
:104A5000FCF7FCBF7573616765206661756C743A1D
:104A60000A0000002AED00E05343425F43465352E0
:104A70005F554653523A30782530325820000000B6
:104A8000554E444546494E5354522000494E5653C4
:104A90005441544520000000494E56504320000028
:104AA0004E4F435020000000554E414C49474E4563
:104AB0004420000044495642595A45524F200000B4
:104AC000DC5400082DE9F04194B00CA81121083005
:104AD000FBF763FB0AA80DF12D042DA1009029A07E
:104AE00009AB2246FBF772FB06A82FA1009008AA8B
:104AF0002AA007ABFBF76AFB2E4D00270C2F08D02E
:104B000055F8271020460322FBF752FB01370028F7
:104B1000F4D1294C294D0822D4E90001CDE90C013A
:104B20000CA82946FBF744FB48B3A4F58070FEF7B8
:104B300025FA23A0FCF78AFFD5E900010222CDE97E
:104B40000C01287A8DF838000CAE20463146FEF76D
:104B500027FADDE90910A046DDE90732069CCDE918
:104B6000000702A81EC022A219212B46304600F0E1
:104B700061F908F1080031460622FEF711FA14B077
:104B8000BDE8F08153657020313920323032350074
:104B9000255B5E205D2025642025640031383A3194
:104BA000333A34390000000025643A25643A25641C
:104BB000000000002800002000690008C457000819
:104BC0002A2A2A2A2A2A2A2A2A626F6F74207665BC
:104BD0007220696E69742A2A2A2A2A2A2A2A2A2AEB
:104BE0002A2A2A2A2A2A2A2A2A2A2A2A2A2A0A006F
:104BF00025732D2530346425303264253032642D00
:104C000025303264253032642530326400000000E3
:104C100083B0C0B503AF0EC703A9009100F026F81A
:104C2000BDE8884003B0704710B504460A2802D199
:104C30000D20FFF7F9FF0748016819B14A1C02600F
:104C40000C7010BD41680029FBD02046BDE8104023
:104C5000084700BF7000002010B50446207818B146
:104C6000FFF7E2FF0134F9E710BD00002DE9F04F36
:104C700087B0054601A88846A0F1010B294611F826
:104C8000010B252803D000280D4645D1CEE06878D9
:104C9000302804D02D2807D14FF0020A01E04FF050
:104CA000010AA878033502E002354FF0000A002718
:104CB000A0F13001C9B2092909D807EB8701C0B2B8
:104CC00000EB4100A0F1300715F8010BF0E740F0D0
:104CD0002001C9B26C2904BF15F8010B0AF1040ABE
:104CE000010600F0A380C1B20246602988BF203AC5
:104CF000D2B2A2F14F03092B08D8DFE803F0050D6B
:104D00000D0D130D110D0D29082024E0422A21D08C
:104D1000432A79D0442A03D0C0B2FFF785FFADE71C
:104D20000A2018E0D8F800904446002019F8001036
:104D300001300029FAD1461EB0465FEA8A706AD473
:104D4000B84566D22020FFF76FFF08F10108F4E7AD
:104D5000102000E00220D8F80030002600244FF098
:104D6000070E002B48BF0124443AB2FA82F25209DE
:104D700012EA040C18BF5B42782908BF4FF0270ED7
:104D8000B3FBF0F406F1010904FB1032092A88BFD5
:104D9000724401A93032162E8A5503D898424E46E5
:104DA0002346EDD9BCF1000F18BF0AF1100A5FEAE3
:104DB000CA6005D501A82D2100F8091009F10109E3
:104DC00030264C465FEACA7008BF20265FEA8A7028
:104DD00006D4BC4206D23046FFF726FF0134F5E781
:104DE0004C4600E001341BF80900FFF71DFFB9F144
:104DF0000109F8D103E02020FFF716FF0134BC427F
:104E0000F9D308F1040839E798F80000FFF70CFF20
:104E1000F7E708F101064846FFF71EFFA046BE422D
:104E2000EFD22020FFF700FF0136F8E707B0BDE81A
:104E3000F08F00000FB47CB50C0009AD01D0611EED
:104E400000E00021CDE90001064B6A46294608989A
:104E500000F01AF8002C02D0009A002111707CBCDE
:104E60005DF814FBCB51000802E008C8121F08C10E
:104E7000002AFAD170477047002001E001C1121FDB
:104E8000002AFBD1704700002DE9FF4F8BB0884608
:104E90000546002606E025280BD0DDE90D129047D7
:104EA0006D1C761C28780028F5D10FB03046BDE87F
:104EB000F08F0024A146A2460122AE4900E004433F
:104EC00015F8013F203B02FA03F00842F7D1287899
:104ED0002A2810D06FF02F022878A0F1300109297C
:104EE00015D809EB890102EB410144F0020400EB03
:104EF00001096D1CF0E758F8041B5FEA010903D5AE
:104F000044F40054C9F1000944F002046D1C2878EF
:104F10002E2817D115F8010F44F004042A280ED0CA
:104F20006FF02F022878A0F1300109290AD80AEB86
:104F30008A0102EB410100EB010A6D1CF2E758F80F
:104F400004AB6D1C28786C280FD006DC4C2817D0D9
:104F500068280DD06A2814D104E0742810D07A286B
:104F60000FD10DE044F400140AE044F4801401E091
:104F700044F440146978814202D104F580146D1C18
:104F80006D1C2878692865D006DC00288DD0632840
:104F900027D0642806D15DE06E2808D073282AD077
:104FA000752877D0DDE90D129047761CE0E0C4F358
:104FB0000250022809D003280DD0D8F80010042888
:104FC0000DD00E6008F10408D2E0D8F80010F217F6
:104FD000C1E90062F6E7D8F800100E80F2E70E7023
:104FE000F0E718F8041B8DF8001000208DF8010080
:104FF000EB46012003E058F804BB4FF0FF30610797
:105000004FF0000701D40AE07F1C57450DDA8742B4
:10501000FADB1BF807100029F6D106E07F1C874257
:10502000FCDB1BF807100029F8D1DDE90D23A9EB03
:1050300007008146214600F0B1F83044C61904E06B
:10504000DDE90D121BF8010B90477F1EF8D22146B7
:10505000484688E058F8040BC4F302514FF00A0B9D
:10506000032900D100B2042900D140B2002802DA9D
:1050700040422D2102E0210505D52B218DF8241079
:10508000012104E006E0E10710D02021F6E708AF97
:10509000089113E058F8040BC4F302514FF00A0BC7
:1050A000032900D180B2042900D1C0B20021EEE76B
:1050B0005946FBF7BDF9303107F8011D0028F7D13B
:1050C000ADEB070000F1200B600702D524F480341B
:1050D00001E04FF0010ADA4502DDAAEB0B0000E027
:1050E0000020824600EB0B0108980144A9EB010067
:1050F0000A90E00306D4DDE90D2321460A9800F06A
:105100004DF806444FF0000908E009A911F809001C
:10511000DDE90D12904709F10109761C08998945CE
:10512000F3DBE0030CD5DDE90D2321460A9800F0FE
:1051300035F8064404E0DDE90D1230209047761C76
:10514000BAF10001AAF1010AF5DC05E0DDE90D1272
:1051500017F8010B9047761CBBF10001ABF1010B76
:10516000F4DC0A982146DDE90D2300F005F8064439
:105170006D1C97E6092801002DE9F0410446002541
:105180001E461746880404D405E039462020B0475F
:105190006D1C641EF9D52846BDE8F0812DE9F0416B
:1051A000044600251E469046C80301D5302700E07E
:1051B0002027880404D505E041463846B0476D1CD9
:1051C000641EF9D52846BDE8F0814A68002A06D059
:1051D0000A68531C0B6010704868401E4860704796
:1051E000DDDDDDDDDCBBBBDDDDDDDDDDDDDDDDDD34
:1051F0009888888888888888777777777788888874
:10520000855555566666666666666666666888880B
:105210008333333222222222222222222228888D04
:105220000204060800000000000000000102030460
:10523000060708090000000001020304010203043C
:105240000607080914263534251D2A2A2A2A2A2A5F
:105250002A2A2A2A2A2A2A2A2A2A2A2A2A2A2A2AAE
:105260002A2A2A2A2A2E0A00494E424F4F54204FFA
:1052700056455254494D452E0A00434C52204F5436
:10528000415F464C414720494E20464C4153482EF1
:105290000A004661696C656420746F20676F746FE3
:1052A000204170706C69636174696F6E204D6F642A
:1052B000652E0A004F544120617765616B20626D55
:1052C000732E0A00434D432052656376203A004610
:1052D0004F432052656376203A00424C4520526588
:1052E0006376203A00466562004465630041756755
:1052F000004A756C004A616E004A756E0053657015
:10530000004D617200417072004F6374004E6F7601
:10531000004D617900424C455F4F54412070726FDF
:105320006772616D6C656E3D25640D0A00424C45E7
:105330005F4F54412043524320636865636B20658F
:105340007272322121210A00424C455F4F544120A4
:1053500043524320636865636B206572722121218B
:105360000A00424C455F4F5441206F766572666C6F
:105370006F772121212E0A00424C455F4F54412E68
:105380002E7061636B5F6E756D203D203A25642C35
:10539000207061636B6C656E203D2025642C6C6110
:1053A00073745F7061636B3A25642E2E2E2E0A0093
:1053B000424C455F4F54412044422C207265637635
:1053C00020316B20646174612C4150502057726908
:1053D00074652050616765203D2025642C2073741E
:1053E00061747573203D2025642E2E2E0A00424CD8
:1053F000455F4F54412044422C20426567696E202E
:10540000557067726164652E2E2E0A00424C455F0E
:105410004F54412043524320636865636B204F4BD8
:105420002E0A00424C455F4F54412045726173651E
:1054300020466C617368207374617475733A2564D7
:105440002C506167653A25642E0A00424C455F4F37
:105450005441206572617365206261636B757020D1
:105460006572726F722E0A00424C455F4F544120A4
:10547000726563656976655F7265706561742E0A31
:1054800000424C455F4F5441206372635F747970F2
:10549000653A2564206372633A307825782E0A00D5
:1054A000424C455F4F5441202D2D2D2D6372636278
:1054B0006C653D307825782D2D2D6372636D637595
:1054C0003D307825782E0A00424C455F4F544120EC
:1054D000646576696365206572726F720A00434D78
:1054E000435F4F54412070726F6772616D6C656EDF
:1054F0003D25640D0A00434D435F4F544120436DE9
:105500006420307835204F4B2E0A00434D435F4FC7
:10551000544120436D6420307836204F4B2E0A00D2
:10552000434D435F4F544120457261736520466C83
:10553000617368207374617475733A25642C5061CB
:1055400067653A25642E0A00434D435F4F5441205E
:105550007061636B6E756D3A25642C7061636B6C62
:10556000656E3A25642E0A00434D435F4F54412037
:10557000436D6420307835204572726F722E0A00B8
:10558000434D435F4F544120436D642030783720B2
:105590004352433136204572726F722E0A00434DDA
:1055A000435F4F5441206572617365206261636B94
:1055B0007570206572726F722E0A00434D435F4F03
:1055C000544120726563656976655F7265706561D7
:1055D000742E0A00434D435F4F5441204571703A89
:1055E000307825782E0A00434D435F4F5441207791
:1055F00072697465206261636B7570206572726F89
:10560000722E207061636B6E756D3D25640A0042D9
:1056100055535F4F54412070726F6772616D6C65B6
:105620006E3D25640D0A004255535F4F544120439F
:105630006D642030783333204572726F722E2E0ADB
:10564000004255535F4F544120436D642030783100
:1056500031204F4B2E0A004255535F4F5441204397
:105660006D642030783332204F4B2E0A0042555360
:105670005F4F544120457261736520466C617368C9
:10568000206572726F72207374617475733A256449
:105690002C506167653A25642E0A004255535F4FCE
:1056A0005441207061636B6E756D3A25642C706196
:1056B000636B6C656E3A25642E0A005041434B5F64
:1056C000434845434B20726573756C743A25642ECC
:1056D0000A004255535F4F544120436D6420307897
:1056E0003131204572726F722E0A004255535F4F5E
:1056F000544120436D642030783332204572726FFC
:10570000722E0A004255535F4F5441207265636503
:105710006976655F7265706561742E0A0042555343
:105720005F4F5441207772697465206261636B75C5
:1057300070206572726F722E207061636B6E756D72
:105740003D25640A0043414E5F4F54412070726F03
:105750006772616D6C656E3D25640D0A0043414EB4
:105760005F4F544120457261736520466C617368D8
:10577000207374617475733A25642C506167653ABF
:1057800025642E0A0043414E5F4F544120657261EB
:105790007365206261636B7570206572726F722E23
:1057A0000A0043414E5F4F544120435243206368F7
:1057B00065636B202050433A25782C4D43553A259C
:1057C000782E0A004E324330324330310000000060
:1057D000F05700080000002060000000684E00083C
:1057E0005058000860000020D07C0000784E00086F
:1057F000965AA52624434D43166800006859014374
:105800000C866E14B07951A37F96249997000000FE
:105810000090D00317EF0000F5520008E552000891
:10582000015300080553000811530008F9520008FD
:10583000F1520008ED520008FD520008095300081B
:105840000D530008E9520008FF000000FF000000AF
:0400000508000131BD
:020000040800F2
:107000003061012045710008C5F9000825D100084C
:10701000517100085371000855710008000000000C
:1070200000000000000000000000000051660108A0
:107030005971000800000000D1460108ED790108EF
:107040005F7100085F7100085F7100084554010816
:107050005F7100085F7100085F7100085F710008D0
:107060005F7100084DBF000861BF00085F71000834
:1070700059AF00085F7100085F7100085F71000878
:107080007DAF00085F7100085F7100085F71000844
:10709000C98D01085F7100085F710008C1BF000859
:1070A0005F7100085F7100085F7100085F71000880
:1070B000D57D0108AD7F0108298101085F710008B5
:1070C0005F7100085F7100085F7100085F71000860
:1070D0005F710008E98A0108418B0108758B01087E
:1070E00001BF00085F7100085F7100085F71000850
:1070F0005F7100085F7100085F7100085F71000830
:107100005F7100085F7100085F7100085F7100081F
:10711000358A0108718A0108758101085F710008CC
:107120005F7100085F710008A9AF00085F71000877
:10713000DFF80CD000F088FF004800476DBC010864
:10714000306101200648804706480047FEE7FEE719
:10715000FEE7FEE7FEE7FEE7FEE7FEE7FEE7FEE707
:10716000657A0108317100080649074A08685043EA
:1071700043F2390210440860400870470149086032
:1071800070470000F80200206D4EC64140EA01033E
:107190009B0703D009E008C9121F08C0042AFAD2CD
:1071A00003E011F8013B00F8013B521EF9D2704791
:1071B000D2B201E000F8012B491EFBD27047002239
:1071C000F6E710B513460A4604461946FFF7F0FFE6
:1071D000204610BD421C10F8011B0029FBD1801A6B
:1071E000704730B504460020034600E05B1C934224
:1071F00003D2E05CCD5C401BF8D030BD034611F8F3
:10720000012B00F8012B002AF9D118467047000025
:107210000FB400B58DB010A909900B9000914FF0FC
:10722000FF300A9000200C90054806900548079012
:107230006A4609A80F9900F09BFD0DB05DF814FB9C
:107240008D7D0008AB7D00082DE9FF5F1D464FF0E6
:10725000FF3BD5E9014691465F464FF00008A9691A
:107260007F1C01988847296A824688470028F6D102
:10727000BAF1FF3F0CD024F4C064002E19DD600683
