:020000040800F2
:1000000008370020450100084D010008D1150008FF
:1000100031170008590E0008CD200008000000002C
:100020000000000000000000000000005701000870
:1000300059010008000000005B0100085D01000894
:100040005F0100085F0100085F0100085F01000810
:100050005F0100085F0100085F0100085F01000800
:100060005F0100085F0100085F0100085F010008F0
:100070005F0100085F0100085F0100085F010008E0
:100080005F0100085F0100085F0100085F010008D0
:100090005F0100085F0100085F0100085F010008C0
:1000A0005F0100085F0100085F0100085F010008B0
:1000B0005F010008AD1C00085F0100085F01000837
:1000C0005F0100085F0100085F0100085F01000890
:1000D0005F010008451E0008AD1E00085F01000812
:1000E0005F0100085F0100085F0100085F01000870
:1000F0005F0100085F0100085F0100085F01000860
:100100005F0100085F0100085F0100085F0100084F
:10011000B51D0008F51D00085F0100085F0100081B
:100120005F0100085F0100085F0100085F0100082F
:10013000DFF80CD000F0D8FA00480047192E00086C
:10014000083700200648804706480047FEE7FEE7DC
:10015000FEE7FEE7FEE7FEE7FEE7FEE7FEE7FEE777
:10016000E91B00083101000840EA01039B0703D0A6
:1001700009E008C9121F08C0042AFAD203E011F8E6
:10018000013B00F8013B521EF9D27047D2B201E0A8
:1001900000F8012B491EFBD270470022F6E710B58C
:1001A00013460A4604461946FFF7F0FF204610BDE5
:1001B00030B504460020034600E05B1C934203D2A6
:1001C000E05CCD5C401BF8D030BD00000FB400B542
:1001D0008DB010A909900B9000914FF0FF300A905C
:1001E00000200C9005480690054807906A4609A82B
:1001F0000F9900F0EDF90DB05DF814FBED05000866
:100200000B0600082DE9FF5F1D464FF0FF3BD5E9C7
:10021000014691465F464FF00008A9697F1C01988E
:100220008847296A824688470028F6D1BAF1FF3FFD
:100230000CD024F4C064002E19DD600614D5BAF188
:100240002B0F09D0BAF12D0F0ED103E0584604B0A0
:10025000BDE8F09F44F48064A9697F1C0198884739
:10026000761E8246002E02DDBAF1300F03D0B9F1BE
:10027000000F26D032E0A969761E44F400747F1C7A
:10028000019888478246002E05DDBAF1780F06D026
:10029000BAF1580F03D0B9F1000F10D01EE0B9F138
:1002A000000F02D0B9F1100F18D1A969761E24F4FD
:1002B00000747F1C019888478246102002E00820C5
:1002C00000E00A20814609E008FB0908A969761EBA
:1002D00044F400747F1C019888478246002E05DD97
:1002E0004946504600F05FF90028EDDAE9690198C7
:1002F0008847A00502D46FF00100A8E7E00725D1E8
:10030000600613D5600502D5C8F1000000E0404644
:1003100029680A1D2A600968220501D5087015E0C0
:10032000220701D5088011E008600FE02868011D50
:1003300029600068210502D580F8008006E02107C9
:1003400002D5A0F8008001E0C0F8008038467EE7C2
:100350002DE9FF5FD2E901A74FF0000891699946A6
:100360001446DDF838B0464601988847054659EAF4
:100370000B0005D009E0A169761C01988847054665
:10038000216A284688470028F5D1681C03D05FEA17
:10039000CA7005D015E04FF0FF3004B0BDE8F09F03
:1003A0002068011D2160D0F800800AE05FEACA7071
:1003B00001D108F8015BA169761C7F1E019888476E
:1003C0000546002F1ADD681C18D0B9F1000F0DD0BA
:1003D000E81705EBD060421120F01F0059F82210F9
:1003E0002A1A012090400142E0D107E0BBF1000F42
:1003F000DCD1216A284688470028D7D0E1690198D6
:100400008847BBF1000F07D1002E05DD5FEACA70F7
:1004100002D1002188F80010A068B84203DDBBF1CA
:10042000000F03D017B16FF00100B6E73046B4E714
:100430002DE9F04D81EA030404F0004B21F0004562
:1004400014464FF0000A23F0004150EA050220D084
:1004500054EA01021DD0C5F30A570246C5F313033F
:10046000C1F31300C1F30A5640F4801543F480131E
:10047000A7EB0608101BD64608F2FD3873EB050003
:1004800002D308F1010801E092185B41B8F1000FB6
:1004900003DA00200146BDE8F08D00204FF4801102
:1004A000064684460EE0171B73EB050705D3121BA7
:1004B00063EB050306434CEA010C49084FEA3000A0
:1004C00092185B4150EA0107EDD152EA030012D0C5
:1004D00082EA040083EA0501084305D0101BAB4102
:1004E00006D20122002306E000224FF0004302E082
:1004F0006FF0010253101AEB06004CEB085110EBA1
:100500000A0041EB0B01BDE8F04D00F08FB80EB5CD
:1005100040F2334102910021CDE900110A460B4619
:1005200000F093F803B000BDC1F30A5210B5C1F357
:10053000130140F2FF3341F480119A4201DA0020A6
:1005400010BD40F233439A42A2F2334203DC5242DE
:1005500000F019F810BD904010BD30B50B460146B3
:1005600000202022012409E021FA02F59D4205D352
:1005700003FA02F5491B04FA02F52844151EA2F1FC
:100580000102F1DC30BD202A04DB203A21FA02F01E
:100590000021704721FA02F3D040C2F120029140BD
:1005A0000843194670473A2800D2303820F020021C
:1005B000412A01D3A2F13700884201D34FF0FF3026
:1005C00070470000026811441378016018467047B4
:1005D000D160044951610449116200211161114641
:1005E00000F0AEB8C505000837070008426842B100
:1005F000016811F8013B23B1521EC0E900121846F0
:1006000070470121C160881E704742685AB1C368B3
:10061000016843B983688B4205D0491E521CC0E96A
:100620000012002070474FF0FF30704710B5141EC5
:1006300073F1000408DA401C41F1000192185B419B
:100640001A4301D120F0010010BD2DE9F04D924672
:100650009B4611B1B1FA81F202E0B0FA80F2203289
:10066000904600F059F804460F4640EA0A0041EA75
:100670000B0153465A46084313D0114653EA010072
:1006800019D0C8F140025046FFF77DFF05460E46DF
:1006900050465946424600F03FF8084305D0012035
:1006A00004E020463946BDE8F08D0020054346EAC7
:1006B000E0762C4337430A986305E40AA0EB080070
:1006C0000022FD0A44EA47540A3002D500200146C0
:1006D000E9E7010510196941DDE90845001969419B
:1006E000BDE8F04DA2E700001CB50948009009489C
:1006F00001900546009C06E0E06840F0010394E8A4
:10070000070098471034AC42F6D3FFF715FD000000
:10071000D04D0008004E0008202A04DB203A00FAE1
:1007200002F1002070479140C2F1200320FA03F348
:10073000194390407047C0B24FF4F05100F096B9A1
:100740002DE9F34F8BB04FF0000801F10C000C467F
:100750004FF0010B46460DF1080A01906269012134
:1007600001989047051E2DD0252D2CD0216A884751
:10077000C0B16269012101989047216A8847002829
:10078000F7D1411E62690198904700E0761CA1698B
:100790000B988847216A88470028F7D1E1690B98B0
:1007A0008847DBE7A1690B9888470746A84201D133
:1007B000761CD3E7E1690B9888477F1C02D1B8F11A
:1007C000000F6FD046E1002762693D463946019827
:1007D00090472A2804D16269012101989047012598
:1007E000DFF884926269012101989047A0F13001FD
:1007F0000A290AD24F45E5DC07EB870100EB4107E8
:10080000303FDFD445F01005ECE7E90601D46FF086
:1008100000476C280AD04C2814D0682815D06A28C4
:100820000DD074281CD07A281AD01DE062690121ED
:10083000019890476C2802D045F0040514E045F07B
:1008400002050DE045F020050AE0626901210198EA
:100850009047682802D045F0080505E045F400659A
:100860006269012101989047C4E9015765283DD08C
:1008700019DC58287AD00CDC452837D004DC252830
:1008800026D0412831D131E046282FD047282CD11D
:100890002CE05B2877D0612828D063287CD064289E
:1008A00023D15AE0D0E06F2848D008DC66281DD05C
:1008B00067281BD0692821D06E2816D127E0702820
:1008C00045D0732868D0752847D078280DD14DE0E1
:1008D000A1690B988847054625283FF469AFE1696F
:1008E0000B9888476D1C3FF46AAFB3E023466A4615
:1008F0006FF001000B99AFF300809EE045F04000DF
:100900006060A80723464FF0000236D43EE0E807B7
:100910007FF447AF2068011D21600068290501D5DB
:1009200006701BE7290701D5068017E7A90703D53D
:10093000F117C0E9006111E706600FE745F04000DC
:100940006060A80723464FF0080216D41EE040F668
:100950000E0125EA0100606016E045F0400060608D
:10096000A80723464FF00A0207D40FE045F04000E5
:100970006060A80708D5234610226FF001000B998C
:10098000AFF3008059E007E0234610226FF001002A
:100990000B99FFF737FC50E04FF000094F464B46EC
:1009A000632802D05B2806D040E0E80601D401208D
:1009B000A06001273AE062690121019890475E2812
:1009C00005D14FF0010962694946019890472169B4
:1009D00039B900210A46534643F82120491C082909
:1009E000FADBB0B3216969B9C11700EBD1625311C9
:1009F0000AEB830122F01F02821A01200B6890404B
:100A000003430B6062690121019890475D28E8D19A
:100A1000B9F1000F09D00020514651F82020D243EF
:100A200041F82020401C0828F7DB02AB2246009743
:100A30006FF001000B99FFF78BFC00280CDA401CCB
:100A400008D1BBF1000F05D04FF0FF300DB0BDE86D
:100A5000F08FFFE74046F9E7E90701D108F1010807
:100A600006444FF0000B79E6CCCCCC0C7F2801D9A2
:100A7000002208E0064A02EB5002C007127800D1BB
:100A8000120902F00F020120904008407047000058
:100A9000AC4800082DE9F84F99B3394E89464FF01C
:100AA000000B4FF6FF774FF480684EF22A348A46E7
:100AB000D94527D9A9EB0B0258463146B2F5806FCC
:100AC00028BF424601F064FBBAF5806F4FF48060A6
:100AD00038BF5046002181420ED0725C5740002240
:100AE000072A07D884EA5703FD0708BF7B080132AD
:100AF0001F46F5E70131EEE7AAF5806A0BF5806B3A
:100B0000D6E70027B8B2BDE8F88F00BF2DE9F84F4F
:100B10008AB31B4E1B4D914604464FF0000B4FF419
:100B200080689246BAF5806F4FF4806738BF5746A9
:100B3000D94521D9A9EB0B024FEA8B203146B2F5FA
:100B4000806F28BF424601F023FB0020B8420DD041
:100B5000315C4C40082139B185EA5402E30708BFF3
:100B6000620801391446F6E70130EFE7AAF5806A1A
:100B70000BF5806BD6E700242046BDE8F88F00BF58
:100B8000042B00202083B8ED2DE9F84F3F4D6E88EF
:100B9000A888B04238D0801B00F52F714FF42F7019
:100BA00091FBF0F202FB1012072A2DDB711CDFF81B
:100BB000E090DFF8E080B1FBF0F303FB101AB6FB26
:100BC000F0F101FB106098F8011019F8000088425C
:100BD00055D119F80A0098F8021088424FD1B01C7C
:100BE0004FF42F7EB0FBFEF101FB1E00F11CB1FBA8
:100BF000FEF319F8000003FB1E1119F8011041EA79
:100C00000020071DBA4201D200273BE00090234894
:100C1000214A09EB06033C46844630465CB1B0FBF2
:100C2000FEF1E3460130013C01FB0CF1595C01335C
:100C300002F8011BF2E73E444FF42F7BB01EB0FBDD
:100C4000FBF101FB1B040098023081B2124800F056
:100C500027F819F80410884211D1701EB0FBFBF17F
:100C600001FB1B0098F8001019F80000814206D122
:100C70004FF42F70B6FBF0F101FB106A00E0002783
:100C8000A5F802A03846BDE8F88F00BF3C0100205F
:100C9000D41A0020AC000020340B002044FDFFFFDC
:100CA000002221B110F8013B01391A44F9E7D0B212
:100CB000704700002DE9F04F85B0DFF8C0C7BCF8E1
:100CC0000000BCF80210814201D10020B8E05E4A69
:100CD000DFF87881B34F5F4D01F24C44002140F2C0
:100CE0004C460191049492F801E013781279009334
:100CF0000392CDF808E0211A91FBF6F202FB1611DF
:100D00000729C0F29C80421CB2FBF6F303FB162AB3
:100D1000B0FBF6F202FB160218F80220724569D108
:100D200018F80A20102A65D1831CB3FBF6F404FBE3
:100D3000163318F803301A44FF2A5AD1C21C049CF7
:100D4000B2FBF6F303FB1622039B18F802209A422B
:100D500050D1021DB2FBF6F303FB162218F8022055
:100D6000A2F13203112B05D8012404FA03F313F086
:100D7000031F08D1113A112A57D8012303FA02F2AE
:100D8000334B1A4251D0421DB2FBF6F303FB16223D
:100D9000831DB3FBF6F418F8022004FB163318F891
:100DA000033043EA022202F1090B594547D308EB0D
:100DB000000100220346934508D0B3FBF6F401334B
:100DC00004FB0714A45CAC540132F4E70BEB0009FC
:100DD0006446A9F1020000F015FD18F80020ABF1FF
:100DE000020081B2284601F0F3FB40B1DDF808E0D3
:100DF000A446049CACF800A01FFA8AF07BE7A9F196
:100E00000100A446DDF808E0049CB0FBF6F101FB0C
:100E10001600009918F800008142EBD1B9FBF6F0FA
:100E2000CDF804B000FB169AE4E7421DB2FBF6F3DE
:100E300003FB162218F8022002F1080BB5E701980F
:100E400005B0BDE8F08F00BFB4000020901D002069
:100E500001000300F00D002001F046BB2DE9F84F22
:100E60004C4D28886988814250D0091A40F24C4282
:100E700001F24C4191FBF2F303FB1211082945DB0F
:100E8000431CDFF814A1DFF81481B3FBF2F404FB78
:100E9000123BB0FBF2F303FB120298F801301AF890
:100EA00002209A426FD11AF80B2098F802309A4229
:100EB00069D1831C40F24C42B3FBF2F404FB1233C1
:100EC00098F803401AF80330A3425CD1C31CB3FB6B
:100ED000F2F404FB123298F804301AF802209A4215
:100EE00051D1421D40F24C4EB2FBFEF303FB1E22D9
:100EF000031DB3FBFEF41AF8022004FB1E331AF89C
:100F0000033043EA0222971DB94201D200273DE097
:100F10000092244A224B0AEB00013C4694460246CA
:100F20005CB1B2FBFEF6E1460132013C06FB0CF679
:100F30008E5D013103F8016BF2E707EB000940F227
:100F40004C44A9F10200B0FBF4F101FB1406009837
:100F5000011D134800F028F81AF80610884212D133
:100F6000A9F10100B0FBF4F101FB140098F80010A6
:100F70001AF80000814206D140F24C40B9FBF0F172
:100F800001FB109B00E00027A5F800B03846BDE843
:100F9000F88F00BF38010020DC210020AF000020C6
:100FA0003C120020B4FBFFFF70B50023072281B183
:100FB0000478013963400024072C08D85DB25E0034
:100FC000002D48BF82EA430633460134F4E701307E
:100FD000EDE7D8B270BDC9B1F0B500234FF6FF728E
:100FE0004EF22A348B420ED0C55C6A400025072D94
:100FF00007D884EA5206D70708BF5608013532469B
:10100000F5E70133EEE7BDE8F04000E0002290B2E2
:1010100070470000F0B5094C0023934208BFF0BDB3
:10102000CD5C684008253DB184EA5006C70708BF7B
:101030004608013D3046F6E70133EEE72083B8ED80
:10104000002221B110F8013B01391A44F9E7D0B26E
:10105000704710B50239445C89B2FFF7F1FF201ADE
:1010600018BF012010BD000001480249016070470F
:10107000240100205516000810B518484FF6FF024D
:1010800001681140164A11434FF0FF3201601548C4
:10109000002108290BD000EB810340F82120013109
:1010A000C3F80021BFF34F8FBFF36F8FF1E70E4AF4
:1010B0000021062906D053564C010131034483F820
:1010C0008042F6E70948016841F0010101600848E3
:1010D0000121BDE8104000F03BBA00BF0CED00E07C
:1010E0000003FA0580E100E01049000818100240F2
:1010F0000002300081B00090009842F20C01C4F26E
:101100000201086001B0704780B584B003900420EC
:101110008DF80B004FF0FF3000F0CAF88DF80B008F
:101120009DF80B00042820D1FFE742F21001C4F221
:1011300002010191086840F002000860039842F241
:101140001402C4F202021060086840F04000086017
:101150004FF0FF3000F0ACF801998DF80B000868F3
:1011600041F6FD7210400860FFE79DF80B0004B0E7
:1011700080BD000081B004208DF8030042F20C0015
:10118000C4F202000068C00720B1FFE701208DF81B
:1011900003001FE042F20C00C4F2020000684007A6
:1011A000002804D5FFE702208DF8030011E042F289
:1011B0000C00C4F202000068C006002804D5FFE756
:1011C00003208DF8030003E004208DF80300FFE7FF
:1011D000FFE7FFE79DF8030001B0704742F21001FE
:1011E000C4F20201086840F0800008607047000007
:1011F00080B584B00390029104208DF80700002090
:1012000000904FF0FF3000F053F88DF807009DF884
:101210000700042838D1FFE742F21001C4F20201AE
:10122000086840F0010008600298039908804FF0B8
:10123000FF3000F03DF88DF807009DF80700042806
:1012400017D1FFE7039802300090BDF80A0000991B
:1012500008804FF0FF3000F02BF88DF8070042F2C5
:101260001001C4F20201086841F6FE7210400860E5
:1012700009E042F21001C4F20201086841F6FE7270
:1012800010400860FFE7FFE79DF8070004B080BD4D
:1012900042F20401C4F2020140F22310C4F267508A
:1012A000086048F6AB10CCF6EF50086070470000BD
:1012B00080B584B0039004208DF80B00FFF75AFF2F
:1012C0008DF80B00FFE79DF80B100020012901901D
:1012D00006D1FFE70398002818BF01200190FFE71F
:1012E0000198C00740B1FFE7FFF744FF8DF80B00FE
:1012F000039801380390E6E7039820B9FFE705203B
:101300008DF80B00FFE79DF80B0004B080BD0000D6
:101310002DE9F84F594DAB88E888984267D0C01A3C
:1013200000F24C4140F24C4091FBF0F202FB1011F4
:1013300007295CDB5A1CDFF870ABDFF84481B2FB95
:10134000F0F404FB102BB3FBF0F202FB103098F822
:1013500001201AF80000904240F083801AF80B0038
:10136000002410287ED19A1C40F24C46B2FBF6F7BE
:1013700007FB16221AF802201044FF2872D1DA1C4B
:1013800040F24C40B2FBF0F404FB102298F8044009
:101390001AF80220A24264D11A1DB2FBF0F404FB39
:1013A00010201AF80000A0F13202112A05D80124F9
:1013B00004FA02F212F0031F08D11138112856D88E
:1013C000012202FA00F02F4A104250D000F00CFA2D
:1013D0009C1DB4FBF2F61AF8000006FB12421AF844
:1013E000022042EA002000F10904A14201D20024B7
:1013F0003AE02548DFF894900AEB0301002240F21E
:101400004C4C8646184694420AD0B0FBFCF7764610
:10141000013007FB0E17BF5C09F802700132F2E7DA
:1014200004EB030940F24C46A9F1020000F0EAF98E
:101430001AF80020A01E81B2144801F0C9F880B942
:10144000A9F1010000F0DEF998F800101AF8000088
:10145000814206D140F24C40B9FBF0F101FB109BF8
:1014600000E00024A5F804B02046BDE8F88F00F0A5
:10147000BBF91AF8000000F10804B6E7500100209B
:10148000B400002001000300B4FBFFFF8816002019
:101490002DE9F04F91F803B00BF00F095FEACB6331
:1014A00044BF8B7849EA030909880B0625D0824698
:1014B00000F1100C00274FF001084FF00F0E00262E
:1014C0005AF8145B082E17D008FA06F30B4210D016
:1014D0000EFA07F209FA07F4BBF1280F25EA020217
:1014E00042EA0405544603D0BBF1480F01D16446DB
:1014F000236004370136E5E70560B1F5807F25D329
:10150000466800F1140A00F1100C00274FF48078AF
:101510004FF00F0E0025082D17D008FA05F30B42E7
:1015200010D00EFA07F409FA07F2BBF1280F26EAE9
:10153000040444EA0206544603D0BBF1480F01D12B
:101540006446236004370135E5E74660BDE8F08F67
:10155000F0B51C4BB0F1FF3F00F4401603F1180248
:101560001446C4BF0424C4F201042568B6F5401F24
:1015700084B206D11E6825F0706526F070661E6084
:1015800010E0C60206D46FF00F0606EA504604FAD1
:1015900006F604E0C0F30346032707FA06F6B54350
:1015A00045F07065B0F1FF3FC8BF1A466FF00F03FA
:1015B00003EA5040002904FA00F018BF0543156003
:1015C000F0BD00BF040001404161704701617047F8
:1015D000104C6068800702D50FA000F09DF860688D
:1015E00040000BD5607808B100F07EFF207808B18C
:1015F00001F05AFD608808B102F02CFD6068B0F17E
:10160000FF3F02DC0AA000F087F80DA000F084F88C
:1016100000F01AFF28ED00E06661696C65642076D1
:101620006563746F722066657463680A0000000069
:101630006465627567206576656E740A0000000057
:10164000486172644661756C745F48616E646C6574
:10165000722E0A000849D1F88020D2070BD0096801
:10166000C90708D04FF060410A680AB900BFFBE71C
:101670004FF0604108707047000E00E011484CF6D2
:10168000CC410160704700BF02490968084018BF9B
:10169000012070470C3000400A484AF6AA21016038
:1016A000704700BF01490860704700BF0430004028
:1016B00001490860704700BF0830004001490860D8
:1016C000704700BF0030004070B5054601200C4651
:1016D00080F310880026A64205D215F8010B02F00F
:1016E0000AFF0136F7E7002080F3108870BD000084
:1016F00070B51C4615460E4618B1014605A000F00F
:101700000BF8304600212A462346BDE8704001F020
:10171000B9BD00BF2573000083B0C0B503AF0EC7CD
:1017200003A9009102F004FEBDE8884003B07047B1
:1017300001F0BABC4FF0FF30C5E90100E86001F0EC
:1017400099BE96218DF80E0030468DF80F10704727
:1017500026212072204661720A2101F0A3B84DF8BB
:1017600008ED2046FFF76CFC1621E071204621723F
:101770000921BAF1010F5DF808EB704701202060E4
:1017800010BD22462B46FEF753BE01232146FFF72C
:10179000AFBFA07940F08000A0712046FFF704BCE5
:1017A000B4F80500092100BA01EB104081B22046CF
:1017B000FFF74FBC012100F03DB8B8F1140F4FF016
:1017C00014027047351D20462946FFF7EDBB40F255
:1017D00025510122C0F80080204600F004BC0821F9
:1017E00060602046FFF7E0BB581D40F24C42B0FB62
:1017F000F2F404FB12007047012301272946224618
:10180000FFF776BFB0FBF6F101FB1600704792B20E
:10181000531CB3FBF4F505FB14337047044A00294D
:1018200011680CBF21EA000008431060704700BF38
:101830001C100240044A002911680CBF21EA000074
:1018400008431060704700BF10100240044A00298E
:1018500011680CBF21EA000008431060704700BF08
:1018600018100240044A002911680CBF21EA000048
:1018700008431060704700BF0C10024010B5D549F6
:101880000A6802F00C03D44A082B0BD10B680C68D1
:10189000C3F383430233E40302D50C68A40300D5E9
:1018A000CE4A5A4302600E4C0B68C3F30313E35C49
:1018B000DA4042600B68C3F30223E35C22FA03F3CD
:1018C00083600B68C3F3C223E35CDA40054BC2605C
:1018D0000968C1F38131595CB2FBF1F1016110BDBE
:1018E00000490008EC48000842090749012A03D0D2
:1018F000022A14BF24312031096800F01F0021FAA8
:1019000000F000F00100704700100240014908603B
:10191000704700BF800442420248417802A0FFF7AE
:10192000FBBE00BF100100204F54412052415445DE
:101930003A25642E0A000000B0B598B0134D6C46ED
:10194000602220462946FEF70FFC681C202179B151
:10195000A1F11602013902F01F0202EB4202A35C60
:101960002244B2F8012000F8013C20F8032BEEE7F6
:101970000648602118B0BDE8B040FFF7A5BE00BF23
:1019800080B502486021FEF708FC80BD942A002043
:1019900070B50023072281B1047801396340002427
:1019A000072C08D85DB25E00002D48BF82EA4306CE
:1019B00033460134F4E70130EDE7D8B270BD0000E2
:1019C00070B586B0082001210826FFF73FFF4FF4CD
:1019D00080400121FFF722FF304C154804F55445A3
:1019E000059005A92846FFF753FD28464FF46041AE
:1019F000FFF7ECFD07200DF10201CDF80E60ADF808
:101A000012000C48CDF80A004FF40030CDF8060063
:101A10004FF08270CDF80200204600F070F82046AA
:101A2000012100F059F8FF2000F006F806B070BD63
:101A300000E003180100000270B5184C05460026AE
:101A40002046022100F052F850B9701CC82E0646FC
:101A5000F6D32046022100F049F8014617A013E012
:101A60002046294600F049F800252046012100F0D3
:101A70003DF870B9681CC82D0546F6D320460121F3
:101A800000F034F8014606A0C922FFF745FE002009
:101A900002E0204600F02FF8C0B270BD00380040D0
:101AA000535049322052584E453A307825782072AA
:101AB000657472793A25642E0A0000005350493249
:101AC0002054584E453A30782578207265747279E2
:101AD0003A25642E0A000000002918BF012102885F
:101AE00022F0400242EA81110180704700890840DB
:101AF00018BF0120704780897047818170470A882C
:101B0000038803F441531A434B881A438B881A43C2
:101B1000CB881A430B891A434B891A438B891A4382
:101B2000CB891A430280828B22F400628283098A65
:101B30000182704710B586B08DF80E001248022160
:101B400010228DF81310ADF80C10CDF80F200A21DB
:101B500002900E4801900020059001ACA01DFFF7F7
:101B600017FF40F626218DF814002046ADF8151019
:101B7000132100F07BFF06A0214612220123FFF76C
:101B8000B7FD06B010BD00BF0C00041024434D4348
:101B90002D2D2D2D2D2D2D003F48016801F00C021B
:101BA0000D49082A0BD102680368C2F3834202324E
:101BB000DB0302D503689B0300D508495143084A5B
:101BC000084B11600068C0F30310185C21FA00F0A4
:101BD000106070470410024000127A0000093D00B6
:101BE000CC000020F04800082B482C4A50F8041C78
:101BF00041F0010140F8041C01681140284A0160CD
:101C000050F8041C114040F8041C50F8041C21F446
:101C1000802140F8041C016821F4FE0101604FF4AA
:101C20001F0141601F490A6842F010020A600A68F9
:101C300022F003020A600A6842F002020A600168A8
:101C4000016001680160016841F480610160016820
:101C500021F47C110160016841F46011016050F8C9
:101C6000041C41F0807140F8041C50F8041C8901E8
:101C7000FBD5016821F003010160016841F0020118
:101C80000160016801F00C010829FAD106484FF003
:101C900000610160704700BF041002400000FFF8BF
:101CA000FFFFF6FE0020024008ED00E0B0B5364C24
:101CB00001210125204600F017F808B103480570FE
:101CC00020460121BDE8B04000F002B8100100201C
:101CD000C94301827047002918BF0121028822F000
:101CE0000102114401807047028A0A4018BF012294
:101CF0008089084018BF012010407047002A82895F
:101D00000CBF22EA0101114381817047B0B51D4A21
:101D10000388904218BFB0F1804F25D14C8823F042
:101D2000700323431C4D40F48064AC4203D0CC8844
:101D300023F440732343038090428B8883850B8870
:101D400003850CD0154A8305024443EA9222052AF2
:101D500007D8012303FA02F212F0390F01D0097AF1
:101D6000018601218182B0BD074CA042D6D0074C2C
:101D7000A042D3D0064CA042D0D0064CA042CDD039
:101D8000D0E700BF002C01400004004000080040E4
:101D900000340140000C00400014004000CCFEBFA5
:101DA000034A0021C18001800172C0F802207047FF
:101DB0000000FFFFB0B57B4C40F22551204600F0FB
:101DC000FAF8A0B1204600F079F9364940F24C44C7
:101DD0004A88FFF71CFD0D88AB4205D1581C021B39
:101DE00018BF02460A80B0BD014C4B80A054B0BD64
:101DF000901D0020B0B56C4C40F22551204600F0FB
:101E0000DAF8C8B1204600F059F90C494FF42F74A4
:101E10008A8892B2531CB3FBF4F505FB14334C884B
:101E2000A34206D1581CB0F52F7218BF02464A8053
:101E3000B0BD034C8B80A054B0BD00BF3C0100205E
:101E4000D41A0020B0B59C4C0821204600F0AEF812
:101E500038B120464FF4587100F051F8204600F098
:101E60002DF9204640F2255100F0A5F8C8B12046D2
:101E700040F2255100F043F8204600F01FF90949CF
:101E800040F24C44CA88FFF7C2FC8D88AB4205D1B2
:101E9000581C021B18BF02468A80B0BD024CCB8082
:101EA000A054B0BD5001002028260020B0B53B4C06
:101EB00040F22551204600F07EF8C0B1204600F0E7
:101EC000FDF80B4940F24C444A8892B2531CB3FBD4
:101ED000F4F505FB14330D88AB4205D1581C021BE9
:101EE00018BF02460A80B0BD024C4B80A054B0BD62
:101EF00038010020DC210020C94301807047090A15
:101F0000012202FA01F1C94301807047002918BF7C
:101F10000121828922F4005242EA413181817047D5
:101F200080B51E49884218D01D4988421CD01D49E1
:101F3000884220D01C49884224D05F49884218BF7B
:101F400080BD4FF480400121FFF78CFC4FF48040AE
:101F50000021BDE88040FFF785BC4FF40030FFF75B
:101F600029FC4FF4003013E04FF48020FFF722FCEF
:101F70004FF480200CE04FF40020FFF71BFC4FF4DF
:101F8000002005E04FF48010FFF714FC4FF48010A0
:101F90000021BDE88040FFF74DBC00BF0044004079
:101FA00000480040004C00400050004000880840BD
:101FB00018BF01207047C1F34212022A06D0012A3D
:101FC00014BF00F1140200F10C0201E000F1100254
:101FD0001288008801F01F03090ADA40C840104047
:101FE00000F00100704710B501F01F03012404FA4E
:101FF00003F3C1F342141421022C08BF1021012C59
:1020000008BF0C21002A42580CBF9A431A43425081
:1020100010BD000070B586B004460D46C888218A00
:1020200021F4405108434EF6F3112082A089084064
:10203000A98808432989084369890843A081A88998
:10204000A18A21F440710843A08201AE3046FFF717
:1020500015FC194906F108006FF063038C4208BFB4
:1020600006F10C000068192101224843B4F90C1054
:10207000B1F1FF3FC8BF0222296803259140B0FBA0
:10208000F1F06421B0FBF1F202FB0300B4F90C3073
:10209000B3F1FF3FC8BF0425A8403230B0FBF1F0D8
:1020A0000721B3F1FF3FC8BF0F21084040EA0210EB
:1020B000208106B070BD00BF0038014080886FF3FA
:1020C0005F2070476FF35F218180704701F0C2BFCE
:1020D00070B504460DA02146FFF71EFB00F0EAF89C
:1020E00000F09EF8B84D0020B84E28602020B04780
:1020F000C4F30710B0472001C0B2B0470020B0477A
:1021000001202860BDE8704000F08AB85350495F54
:10211000464C4153482065726173653A25780D0A33
:1021200000000000BCB5102001210125FFF78EFB47
:102130000C480D4C4FF4007101902046FFF746FA11
:1021400001A92046FFF7A4F908480560FFF738FC0D
:1021500000F040F801460648018006A0FFF7DCFACF
:10216000BCBD00BF0002031000100140A4012242C8
:10217000D00000205350495F464C415348206368CB
:1021800069702069643A307825782E0A00000000D2
:102190002DE9F0410D468C49064600208B4F144630
:1021A000086003208846B847C6F30740B847C6F31F
:1021B0000720B847F0B2B84734B1FF20FFF73CFC26
:1021C00005F8010B013CF7E70120C8F80000BDE865
:1021D000F08100BF70B57C4D00207C4E28609020BF
:1021E000B0470020B0470020B0470020B047FF2094
:1021F000B0470446FF20B047012140EA042029608F
:1022000070BD00BF10B5704C002020600520FFF7A6
:1022100013FCFF20FFF710FC0121216010BD00BF5F
:10222000B0B5002442F20F75FFF7ECFFC00703D0F2
:10223000AC4206D80134F7E742F21070844238BF4E
:10224000B0BD02A0BDE8B040FFF766BA7732357185
:102250007878206275737920657272210A00000017
:102260002DE9F843064601201446884600EB16394E
:1022700030466FF31F30C0F58057974228BF17468E
:10228000BDB2404631462A4600F01EF8A0B2A84230
:1022900008BFBDE8F8834846FFF71AFFE41B2E4449
:1022A000A84409F10109A7B2B7F5805F28BF4FF430
:1022B0008057E5E710B5444C002020600620FFF76A
:1022C000BBFBFFF75BBA00BF2DE9F84F0646C8B26B
:1022D000DFF890A093460D460FF264080FF28809CC
:1022E000C0F58074944228BF1446A7B240462946E0
:1022F0003A46FFF711FA304629463A4600F040F8D0
:10230000284651463A46FFF743FF304651463A4683
:10231000FDF74EFF10B14846FFF7FEF91FFA8BF0AC
:10232000B84208BFBDE8F88FABEB040B3D443E4418
:102330001FFA8BF4B4F5807F28BF4FF48074D4E784
:102340005350495F464C4153482077726974652069
:10235000616464723A2564206C656E3A25642E0AC5
:1023600000000000042B00205350495F464C4153AD
:1023700048207772697465204572722121210A0014
:102380002DE9F04114460E460546FFF793FF0E492E
:1023900000200E4F086002208846B847C6F3074069
:1023A000B847C6F30720B847F0B2B8472CB115F8C4
:1023B000010BFFF741FB013CF8E70120C8F80000E2
:1023C000BDE8F041FFF72CBFA4012242391A0008F2
:1023D00010B504460120FFF799FA6120FFF784FA4F
:1023E0000028FAD045F25550FFF768F90120FFF7B1
:1023F0004BF90028FAD10520FFF754F90220FFF726
:1024000043F90028FAD104EB8400C0F31811C2008C
:1024100040F6FF70814238BFD009FFF749F900202C
:10242000FFF74CF9BDE81040FFF728B90D48BFF39E
:102430004F8F0D4A016801F4E06111430160BFF361
:102440004F8F00BFFDE700BF0648BFF34F8F064A1E
:10245000016801F4E06111430160BFF34F8F00BFD9
:10246000FDE700BF0CED00E00400FA05F8B50648F2
:10247000019005A0416800890291ADF80C0001A807
:102480000A2100F0A1F98FBD6831CE68020235350E
:102490003D16000080B5000BFFF71AFE042080BD3A
:1024A00080B5920092B2FFF7DBFE042080BD4FF6AC
:1024B000FF72B1B1F0B500234EF22A348B420ED038
:1024C000C55C6A400025072D07D884EA5206D70765
:1024D00008BF560801353246F5E70133EEE7BDE89F
:1024E000F04090B27047000010B51BA0FFF714F940
:1024F0001C4C1DA02178FFF70FF92078C00702D0EF
:102500001FA0FFF709F92078800702D51FA0FFF769
:1025100003F92078400702D51FA0FFF7FDF82078C7
:10252000000702D520A0FFF7F7F82078C00602D5F3
:1025300020A0FFF7F1F894F90000B0F1FF3F04DDAF
:102540002248BDE81040FFF7E7B8D4F80F101BA0F1
:10255000BDE81040FFF7E0B8627573206661756CE6
:10256000743A0A0029ED00E05343425F4346535258
:102570005F424653523A30782530325820000000EE
:1025800049425553455252200000000050524543E5
:102590004953455252200000494D5052454349533A
:1025A0004552522000000000554E53544B455252A4
:1025B0002000000053544B45525220005343422DFB
:1025C0003E424641523A253038580A00594B0008DD
:1025D00010B5002321B110F8014B01392344F9E76C
:1025E000D8B2801A18BF012010BD0000B0B586B067
:1025F000054630200121FFF729F94FF48010012111
:10260000FFF70CF9274C2046FFF78AFCCE480195CE
:1026100003900020ADF810004FF48050029001A903
:102620002046FFF7F7FC1348059005AD04F5404040
:102630002946FEF72DFF10482946059004F5444031
:10264000FEF726FF204640F225510122FFF7CBFC82
:10265000C2484FF40011016020460121FFF756FCEB
:1026600020464021FFF748FC20468021FFF744FC2C
:1026700006B0B0BD0010031804000348B0B5094C03
:10268000054620468021FFF791FC0028F9D020461E
:102690002946FFF717FD20464021FFF787FC002859
:1026A000F9D0B0BD00500040B0B50C4605462CB185
:1026B00015F8010BFFF7E2FF013CF8E7B0BD0000A1
:1026C0002DE9F04385B005464FF4002001214FF07D
:1026D0000108FFF7A3F83C200121FFF7B7F8394CB8
:1026E0002046FFF71DFC98484FF000096946009509
:1026F000ADF80C9002904FF4805001902046FFF707
:1027000089FCCD4804F54446914F049004AD304611
:102710002946B847C948294604903046B8471A4860
:1027200004F54046294604903046B847304680219B
:10273000FEF74AFF15482946049004F54840B8477B
:102740002E482946C0F80090114804903046B847FA
:1027500010482946049004F54C40B8470E48FFF74E
:1027600036F87E484FF48011016020460121FFF7C2
:10277000CDFB20464021FFF7BFFB20468021FFF71D
:10278000BBFB05B0BDE8F083800002100020031001
:102790002000021400400210B8012342B0B5094CD9
:1027A000054620468021FFF701FC0028F9D020468D
:1027B0002946FFF787FC20464021FFF7F7FB00285A
:1027C000F9D0B0BD004C0040F8B50C46054607A056
:1027D000FFF712F8094E37602CB115F8010BFFF71F
:1027E000DDFF013CF8E700203060F8BD4255535F43
:1027F0004F544120424D533A00000000B481224220
:1028000070B586B004464FF400300121FFF706F89A
:1028100004200121FFF71AF84B480194204C039043
:102820000020ADF810004FF48050029001A920461E
:10283000FFF7F0FB0E4804F54445059005AE284629
:102840003146FEF725FE0B48314605902846FEF737
:102850001FFE204640F225510122FFF7C4FB3F48EE
:102860004021016020460121FFF750FB06B070BDFA
:102870000400031808000348B0B5094C054620467B
:102880008021FFF793FB0028F9D020462946FFF767
:1028900019FC20464021FFF789FB0028F9D0B0BD84
:1028A00000440040B0B50C4605462CB115F8010BAC
:1028B000FFF7E2FF013CF8E7B0BD00002DE9F04171
:1028C00086B0064644F224000121FEF7BFFF1D4DED
:1028D00005F540542046FFF723FB1B484FF0000846
:1028E0000196ADF8108003904FF48050029001A93A
:1028F0002046FFF78FFB1548154F059005AE28467B
:102900003146B8471348314605902846B847124823
:102910003146059005F54060B8472948FEF757FF56
:102920000E482021016020460121FFF7EFFA2046E2
:102930004021FFF7E1FA20468021FFF7DDFA06B0DB
:10294000BDE8F0810008014000040C0000020318FB
:1029500091140008000403480010031004E100E093
:10296000B0B5094C054620468021FFF71FFB002823
:10297000F9D020462946FFF7A5FB20464021FFF766
:1029800015FB0028F9D0B0BD00380140F8B50C4661
:10299000054607A0FEF730FF094E37602CB115F849
:1029A000010BFFF7DDFF013CF8E700203060F8BDC8
:1029B0004255535F4F544120464F433A00000000B8
:1029C000B081224270B586B005464FF480200121C7
:1029D000FEF724FF08200121FEF738FF224C204695
:1029E000FFF79EFA4FF44020019503900020ADF8C8
:1029F0001000029001A92046FFF70CFB0E4804F5D9
:102A00004445059005AE28463146FEF741FD0B488A
:102A1000314605902846FEF73BFD20460121FFF791
:102A200075FA20464021FFF767FA20468021FFF71C
:102A300063FA06B070BD00BF000403180008034825
:102A4000B0B5094C054620468021FFF7AFFA0028B3
:102A5000F9D020462946FFF735FB20464021FFF7F5
:102A6000A5FA0028F9D0B0BD00480040B0B50C462A
:102A700005462CB115F8010BFFF7E2FF013CF8E722
:102A8000B0BD000014490A68D20708D1134A136880
:102A900043F0807313600A6842F001020A6070B567
:102AA0001C4EF060FDF733FD04460D460C480D4901
:102AB000FEF767FEFDF738FDB0600B480B49FEF7E7
:102AC00060FEFDF731FD706009480A49FEF759FEC6
:102AD000FDF72AFD306070BD001000E0FCED00E065
:102AE000807BE1FF7F842E4300C0E0FFFF3F8F42E9
:102AF0000000E0FFFFFFEF41064A5368D2688B42B7
:102B000038BF19464FF47A73B2FBF3F2514300F029
:102B100003B800BF2801002041600949096801602D
:102B2000AFF30080B0B5064D0446D4E900012A6831
:102B3000101A884228BFB0BDFEF7AEFDF5E700BF12
:102B4000041000E02DE9F84F814623A04946FEF726
:102B5000E3FD294F2BA607F5EA24BA46A7420FD278
:102B6000384600F05FF8054630463946FEF7D4FD9A
:102B700007F50067042DF1D025A0FEF7CDFD28E074
:102B8000FEF786FB1E481D4D00264FF001084C46FF
:102B900083464E451AD22746B4F5806F3046294603
:102BA00028BF4FF480673A46FFF7F2FAB807564459
:102BB0004FEA97022946304618BF08EB970200F00B
:102BC00043F858465E44A4F58064E2E7FEF706FB4E
:102BD00004252846BDE8F88F535441525420424101
:102BE000434B555020434F505920544F2041505093
:102BF0003A25642E0A00000000700008042B002013
:102C00000094FFF765726173652025782E0A000035
:102C1000657261736520617070206572726F722ECB
:102C20000A00000010B572B60446FEF731FB3420EE
:102C3000FEF760FA2046FEF767FA0446FEF7CEFA82
:102C400062B6204610BD0000F8B572B614460E46B6
:102C50000746FEF71DFB0025AC420CD03420FEF7E2
:102C600049FA56F825103846FEF7C2FA042807D16B
:102C700004370135F0E7FEF7B1FA62B60420F8BD7B
:102C8000014603A02A46FEF747FD0520F8BD00BF18
:102C9000466C617368207374617475733A25642C93
:102CA000693A25642E0A0000B0B5284D2979022919
:102CB0000AD170B1687901280DD0022810D1AA6814
:102CC0000020FDF723FF09E021A0BDE8B040FEF79A
:102CD00023BDE9680DE0A968FDF7DCFE044600E0CD
:102CE0000024697922A02246FEF716FDE9688C428D
:102CF0002BD129A0FEF710FDA868FFF723FF0428B9
:102D000023D12BA0FEF708FD68792D4C012807D0B0
:102D100002280BD1AA6800202146FEF77BF903E0C8
:102D2000A9682046FEF757F9014600E00021E8684F
:102D300088420AD123A0FEF7EFFCFEF7FBFC2046F9
:102D400000F04AF808B1C248BFE7B0BD100100204A
:102D5000666C6173685F636F707920666C61672071
:102D60006572722072657475726E2E0A0000000022
:102D70004241434B55502043524320545950453A09
:102D80006372635F747970653A25642D4352433AE8
:102D9000307825782E0A00004241434B555020439D
:102DA0005243204F4B3A307825782E0A000000001D
:102DB000666C6173685F636F7079204F4B2E0A00F9
:102DC0000070000841505020435243204F4B3A308E
:102DD0007825782E0A00000010B5044600680C49DA
:102DE0000840B0F1005F1CBFFF2010BD01F09CF94E
:102DF000012080F31088074980F3138872B6606859
:102E00000860206880F3088808688047002010BDAB
:102E10000000F02F902A0020FEF7BEFE6D480068EB
:102E2000FFF730FE47F23050FFF7D2FAFEF71CF9F9
:102E3000FEF722F9FFF776F94FF41650FFF740FC42
:102E40004FF41650FFF73AFD4FF4E120FFF7CEFBA9
:102E50004FF4E130FFF7D4FC4FF4FA20FFF7B2FD56
:102E600000F0C0F900F0D8F95B485D4A5B495D4D60
:102E7000006812680968C5E90120E960287902281C
:102E800003D0012808D161A00EE057A0FEF744FC52
:102E90000120FFF709FF09E065A0FEF73DFC6B4844
:102EA000FFF79AFF10B16A48FEF736FC00F068F9A8
:102EB000FEF766FDFEF740FDFEF72EFD01F0DAF9A4
:102EC0000F2600272878F8B1002028706878FEF7D0
:102ED00031FE0137F8B20A280AD369885DA0FEF7EF
:102EE0001BFC688800270130688080B21E2863D2EE
:102EF0000136F0B2142805D35E48FEF70DFCFFF74B
:102F0000B5FA0026FEF7C8FBFDF7A8FF8246FDF7DD
:102F1000D1FE8046FEF7FCF98346FDF735FE81467B
:102F2000B8F1060F11DB594EFEF747FC54A0B8BFAD
:102F3000424601233146FEF7DBFBFEF7EDFC30464F
:102F40004146012200F0B6FC0026BBF1060F0EDB65
:102F5000504CFEF732FC4E48B8BF4246FEF715FC17
:102F6000FEF7DAFC20465946022200F0A3FCBAF133
:102F7000060F0DDB494CFEF720FC4748B8BF424620
:102F8000FEF703FCFEF7C8FC2046514600F06EFE3B
:102F9000B9F1070F96DB434C1420B8F1140FA8BF0A
:102FA000804642463E48FEF7F0FB2046494600F088
:102FB000A3FAFEF7B1FC85E72F48FEF7ADFB2879B1
:102FC0006F80012804D12D48FEF7A6FBFEF7B2FB67
:102FD000FFF72CFACC0000200468000808680008FD
:102FE00000680008100100204E6F7720696E2042B3
:102FF0006F6F744C6F61646572204D6F6465204F14
:1030000054415F434F50592E0A0000004E6F772005
:10301000696E20426F6F744C6F61646572204D6FF2
:103020006465204F54415F53544152542E0A0000AE
:103030004E6F7720696E204170706C6963617469AE
:103040006F6E204D6F64652E0A000000007000084E
:1030500040490008696E626F6F74206F7665727404
:10306000696D6520636F756E743A25642D36302E58
:103070000A000000624900081649000828490008B3
:10308000424D532052656376203A0000F00D002037
:103090007D49000888160020724900083C12002073
:1030A00088490008340B002010B518A0FEF734FB47
:1030B0001B4C1CA02178FEF72FFB2078C00702D004
:1030C0001EA0FEF729FB2078800702D51EA0FEF780
:1030D00023FB2078000702D51EA0FEF71DFB2078F9
:1030E000C00602D51EA0FEF717FB94F90000B0F150
:1030F000FF3F04DD2148BDE81040FEF70DBBE1684D
:103100001AA0BDE81040FEF707BB00BF6D656D203B
:103110006D616E616765206661756C743A0A0000C6
:1031200028ED00E05343425F434653525F4D465300
:10313000523A30782530325820000000494143434C
:1031400056494F4C200000004441434356494F4CE0
:10315000200000004D554E53544B45525220000064
:103160004D53544B45525220000000005343422D12
:103170003E4D4D41523A253038580A00594B00080F
:103180002DE9FC41302001214FF00108FEF75EFBE4
:103190000E481F4C0F4FC0F800800D48019001AD44
:1031A00004F580602946B8470B4E00202946306060
:1031B0000A4801902046B8470948C6F81C802946AD
:1031C00001902046B847BDE8FC8100BFBC81224287
:1031D00000800210911400089C012242800002101D
:1031E00000400210FEB56846FEF748FB10200121A2
:1031F000FEF72CFB05480590054805A9FEF748F9A0
:1032000004480021016006B080BD00BF0800031023
:10321000001001408C012242BFB5164C2046FEF73B
:103220002DFB02200121FEF7F9FA0DF106052846D3
:10323000FEF7B6FD002042F21071ADF80C000E480A
:10324000029060680D4CB0FBF1F029460138ADF8F2
:1032500006002046FEF75AFD204601210122FEF716
:103260004DFD20460121FEF736FD05484FF0005187
:103270000160BFBD742A00200000E7030004004085
:1032800000E100E0F8B51E461446054611B114A051
:1032900001F020F8012E0BD0022E13D0042E19D1EC
:1032A00012A602CD304601F015F8013CF9D111E02B
:1032B000002712A6A7420DDAE95D304601F00AF8B0
:1032C0000137F7E70BA635F8021B304601F002F88C
:1032D000013CF8D10A20BDE8F84001F007B800BF72
:1032E0004030782530386C582000000020253038D8
:1032F0004C58000020253034580000002025303282
:10330000580000007FB5054614488DF80D100DF1EA
:1033100006060C468DF80C50CDF806000020ADF8DE
:103320000E006FF03500002908BF6FF075008DF8B2
:103330000A0008210A4800788DF80B003046FDF796
:10334000AFFCFEF7FEF90A21FFF7AEF905A029460A
:10335000224604B0BDE87040FEF7DEB95AA500066B
:103360003C0100203D3D424C455F4F5441204143CC
:103370004B20636D643A256420636F64653A25646D
:10338000200A0000BFB504468A200DF10705072179
:103390008DF80B000F488DF80D40CDF80700002088
:1033A000ADF80E000C4800788DF80C002846FDF7AB
:1033B00077FC96218DF80E0028468DF80F10092114
:1033C000FFF772F905A0214604B0BDE8B040FEF752
:1033D000A3B900BF5AA500053C0100203D3D424C69
:1033E000455F4F54412041434B20636D643A25644F
:1033F000200A00007FB505468A208DF80D100C4686
:103400000A218DF8080011488DF80C500190002019
:10341000ADF80E0003208DF80A00280A8DF80B0085
:103420000B4800788DF8090001AE3046FDF738FCF6
:10343000FEF787F90C21FFF737F906A02946224647
:1034400004B0BDE87040FEF767B900BF5AA5000898
:103450003C0100203D3D424C455F4F5441204143DB
:103460004B207061636B3A256420636F64653A2575
:1034700064200A00B0B50B4C2046FFF7D3FB0AA02E
:10348000FEF74AF9144D15A015F8041FAB686A78C9
:10349000FEF742F9204629460322BDE8B040FFF777
:1034A000D3BB00BF006800082A2A2A2A2A2A2A2A0F
:1034B0002A626F6F7420737461207365742A2A2ADC
:1034C0002A2A2A2A2A2A2A2A2A2A2A2A2A2A2A2A5C
:1034D0002A2A2A2A2A0A0000100100206F74615F3C
:1034E0007374615F696E666C6173683A25782C2528
:1034F000782C25780D0A00002DE9F843054600795F
:103500000A2823D16879052801D0102820D1DFF8B6
:10351000F09289F80000A8790138032800F2D480DD
:103520000FF20401DFE800F002192A4B0120FFF737
:1035300029FFB4490020C9E9030008804FF0FF319A
:10354000A9F80610B0490873D84802E0A7A000E027
:10355000D748BDE8F843FEF7DFB80020C9F80800F7
:10356000D5F8070001BAA84841606A79052A00F039
:10357000AD80102A40F0AC800122A8E0A1480021D3
:10358000B9F80630018068886FF0060100BA01EBD7
:103590001046D9F80800B5F8071032463044C9F88B
:1035A000080008BA040CB9482146FEF7B5F8B9F886
:1035B0000600A0423CD1B848FEF7AEF873E091484F
:1035C000914E00210180307B30B99048FEF7A4F87D
:1035D00004202021FFF796FED9F80C20CAB1D9F8B3
:1035E00010108BA0FEF798F8D9F80C40954D96492D
:1035F00028462246FCF7B8FDD9F81000934901EBA4
:103600008020E11C8A082946FEF74AFF90A0FEF7B9
:1036100083F83078012800F08580022840F08A8005
:1036200070680021A0F580620020FDF76FFA7FE04E
:10363000D9F80C70DFF8108205F10901324608EB69
:103640000700FCF791FDBD19B5F5806FC9F80C5066
:1036500029D37C4841464FF48062FCF785FDA5F5EF
:10366000806208F580614046C9F80C20FCF77CFDBB
:10367000D9F81000002800F088806349097B0029F0
:1036800000F09B8071494FF4807201EB80206D49FE
:10369000FEF706FF0246D9F81000411C7C48C9F825
:1036A0001010FEF739F800212046A9F80640FFF770
:1036B000A1FE5548406838B1D9F80810642251433A
:1036C000B1FBF0F075490870BDE8F8830222027082
:1036D0000027077387607248FEF71EF849480024E8
:1036E0000025C9E9037707804FF0FF30A9F80600ED
:1036F000B7EBD54F11D12846FEF7CCFE042803D1F5
:10370000013405F58055F3E706466648FEF704F8F0
:10371000654831462246FDF7FFFF0220BDE8F84329
:10372000FFF730BE7068A0F580610020FDF7B2F9A8
:10373000044600E00024B16851482246FDF7ECFF42
:10374000B068A04218D104200021FFF7DBFD4D48EE
:10375000FDF7E2FF4C480221017031784170D6E953
:103760000121A2F58062C0E90121FFF783FE00205C
:10377000BDE8F843FFF798BA2448FDF7CDFF0420D1
:103780002021BDE8F843FFF7BDBD0120C9F81000B6
:103790002C4800F027FC013804283FF684AFDFE80E
:1037A00000F0030E100C120099F8000005280CD050
:1037B00010280ED11448012109E0112174E71221CB
:1037C00072E7132170E714216EE70F4802210170A0
:1037D00001E00D4801780C4D01202873194800F0D4
:1037E0002FFC0246A86029782A485AE7424C455FD8
:1037F0004F544120636D64206572726F720A00003D
:103800003C01002012010020F42A0020DB490008BE
:10381000424C455F4F54412044422C20207468653F
:10382000206C617374207061636B207772697465BA
:1038300020706167653A25642C6C656E3A25640AD0
:1038400000000000580100205805002000FCFFFF88
:10385000424C455F4F54412044422C2020746865FF
:10386000206C617374207061636B2077726974657A
:1038700020706167652066696E6973680A000000E0
:103880001D4B0008894A000814010020F549000872
:103890002D4A0008FE4A0008E54A000811010020F0
:1038A000C3490008C84A0008A04A00086B4A00083B
:1038B000454B00082DE9F04704460079924633282D
:1038C00066D0112822D0222818BF322816D160795C
:1038D000A17941EA002505F1090081B22046FDF7F2
:1038E000B8FB002120B34FF4D170A1710721A08053
:1038F000FDF735FF5CD1FEF767FF5BE0102803D1D1
:103900006079002800F0D780BDE8F087FDF748FF18
:10391000002800F07B8000200721A07140F2D11028
:10392000A080FDF71CFF40F0BC80FEF74DFFBAE021
:103930009B48E6796F1E3A460180B5483146FDF74F
:10394000EBFEDFF86092642001227043D9F8041086
:1039500002EB9121B0FBF1F0AE490870C1B2AEA00C
:10396000FDF7DAFEDFF8C88298F80000B04223D1F4
:10397000B448FDF7D1FE00200721A0714FF4D970A3
:10398000A080FDF7ECFE40F09080FEF71DFF8EE07A
:10399000FDF706FF002856D00020A07140F2A310CA
:1039A0000721A080FDF7DBFE2CD1FEF70DFF2BE0F9
:1039B000FEF7ECFFA148E7E0012E40F0978004F10C
:1039C0000807384600F00EFB01469B48FDF7A4FEB1
:1039D000384600F007FB0138042800F29A801221D3
:1039E000DFE800F00403D6D8DA007CE7012538468A
:1039F000012189F8005000F023FB89F80C50C9F828
:103A00000800B8E7FEF7C2FF6448BDE06548012141
:103A100000250170D4F80710057309BAC0E9011533
:103A20008B48FDF779FE5E48002600270580B5EB40
:103A3000D74F79D13846FEF72DFD04286FD10136D6
:103A400007F58057F3E75649564D00200880297B3B
:103A50000029A2D068680027A0F580610020FDF74A
:103A600019F80646A96850A03246FDF755FEA86829
:103A7000B0426FD15F4802210170297841706968B6
:103A8000A1F58061C0E90116FFF7F4FC40F2B31024
:103A90000721A771A080FDF762FE68D1FEF794FEB2
:103AA00067E0FEF773FF69486EE0FEF76FFF664858
:103AB00088F8006068E03A480025058067A0FDF7B7
:103AC0002BFE20790621657140F080002071204690
:103AD000FDF7B6FA1621A0712046E1710821BAF16E
:103AE000010F33D1BDE8F047FEF76EBE99F80C0028
:103AF000D8B30120BA08B90718BF00EB97024D48A8
:103B000004F1080100EB8620FEF7CAFC04283FF40C
:103B100032AF4B483146BDE8F047FDF7FDBD0146E9
:103B20004C483246FDF7F8FD01200721A4F80500B6
:103B3000207940F080002071FDF711FE02D1FEF7E0
:103B400043FE01E0FEF722FF43481DE0BDE8F047D9
:103B5000FEF71CBF40F2A3100721A771A080FDF75C
:103B6000FEFD0ED1FEF730FE0DE00021BBE6FEF7B4
:103B70000DFF21A0FDF7D0FD0020BDE8F047FFF7C5
:103B800093B8FEF703FF14A0BDE8F047FDF7C4BDEE
:103B90001321A8E61121A6E61421A4E6A44C0008EE
:103BA00012010020F42A00204255535F4F54412057
:103BB0002D2D2D2D6372633136656332353D30789E
:103BC00025782D2D2D63726331366D63753D307808
:103BD00025782E0A000000004255535F4F544120C3
:103BE0004241434B555020435243204552522E0AE6
:103BF00000000000140100204255535F4F54412043
:103C0000436D642030783333204F4B2E0A00000080
:103C1000184D0008110100204255535F4F544120B8
:103C20006F74615F726174653A25642E0A0000004A
:103C30000401002000F8FFFF384D0008684D00081F
:103C40009A4D0008814D0008D44C00084F4D0008E3
:103C50008C4C0008EA4C0008BE4C00084255535FEB
:103C60004F5441205253540D0A0000002DE9F843EF
:103C700086880446B01D884201D9BDE8F883A07942
:103C8000072836D0062873D00528F6D1FDF79AFD0F
:103C9000615D884240F0B180A3484FF000080121E7
:103CA000A0F8008097480170D4F8071080F80C80C5
:103CB000C0E90118C648FDF72FFDB4F80B10904D70
:103CC000C4482980FDF728FD2888102801D006283F
:103CD000D3D100250026B8EBD64F40F0C480304643
:103CE000FEF7D8FB042840F0B580013506F5805674
:103CF000F1E783480088102801D00628BDD1814F04
:103D0000387B002800F08080FDF75CFD615D884213
:103D10007DD18548002606807868A0F58061002066
:103D2000FCF7B8FE0546B96880A02A46FDF7F4FC0A
:103D3000B868A84240F0A280894802210170397811
:103D400041707968A1F58061C0E90115FFF792FB28
:103D500004200821E671A080FDF71BFDFDF7F8FCAB
:103D600080A0FDF7D9FC0020BDE8F843FEF79CBF1A
:103D700063480088102802D006287FF47EAFFDF744
:103D800021FD615D884240F0A28067480021B4F8BF
:103D90000720073E0180607AA17A42EA004777480F
:103DA000324647EA01652946FDF7B6FCDFF8549133
:103DB000642001226843D9F8041002EB9121B0FB82
:103DC000F1F06F490870C1B26EA0FDF7A5FCDFF8F5
:103DD000CC81D8F80000A84220D17948FDF79CFC9E
:103DE00004200821A0800020E071FDF7D2FCFDF73F
:103DF000AFFC7448C8F8005078E07348FDF7EFFC5A
:103E0000FDF7A6FC714871E05B4860603EE03E480B
:103E1000FDF7E5FCFDF79CFC3CA067E0012D3DD1E2
:103E200004F10B06304600F0DDF8411E042948D8A5
:103E30001220DFE801F0034D5F6163000127304687
:103E4000012189F8007000F0FBF889F80C70C9F8BE
:103E50000800C5E707466048FDF75EFC5F48394645
:103E60002A46FDF759FC04200821A0800020E071BB
:103E7000FDF78FFCFDF76CFC594837E00420A0806B
:103E80001020E071A07940F0C000A0712046082108
:103E9000FDF78AF8FDF75CFC304827E099F80C0044
:103EA000A8B10120B208B10718BF00EB96023C4848
:103EB00004F10B0100EB8720FEF7F2FA04283FF42F
:103EC0008FAF3E482946BDE8F843FDF725BC80206A
:103ED000E071A0790421A180082140F0C000A07108
:103EE0002046FDF761F8FDF733FC2EA0BDE8F8434E
:103EF000FDF712BC1320EBE71120E9E71420E7E7F8
:103F0000042F0020F42A00200400C780434D435FA3
:103F10004F544120436D6420307837204572726FD2
:103F2000722E2E0A0000000012010020434D435F54
:103F30004F5441202D2D2D2D637263313665633230
:103F4000353D307825782D2D2D63726331366D63C4
:103F5000753D307825782E0A00000000FD4B0008E2
:103F600014010020434D435F4F54412030783720E7
:103F70004F4B2E0A000000000400C710C54B00087C
:103F800011010020434D435F4F5441206F74615F26
:103F9000726174653A25642E0A0000000801002051
:103FA00000F8FFFF434D435F4F544120436D6420B1
:103FB000307836204572726F722E0A00644C000809
:103FC000384C0008884B00080400C580E54B000809
:103FD0005B4B0008514C00081B4C00089D4B00082F
:103FE000734B0008B0B5B0F8FE5340F2FE31044602
:103FF000FEF75DFA85421CBF0520B0BD0F49204683
:104000001022FCF7D5F808B10420B0BD207C1028A0
:1040100011D1607CEF280ED104F112010022102A88
:1040200004BF0320B0BD885C0132C0074FF001001F
:1040300018BFB0BDF3E70220B0BD00BFB90000203B
:10404000022904D0012914BF0020408C7047406A27
:104050007047000010B518A0FDF75EFB1A4C1BA0BE
:104060002188FDF759FB2088C00702D01DA0FDF76D
:1040700053FB2088800702D51DA0FDF74DFB20884B
:10408000400702D51DA0FDF747FB2088000702D599
:104090001CA0FDF741FB2088C00502D51BA0FDF741
:1040A0003BFB2088800502D51BA0FDF735FB1D4892
:1040B000BDE81040FDF730BB757361676520666130
:1040C000756C743A0A0000002AED00E05343425F29
:1040D000434653525F554653523A30782530325852
:1040E00020000000554E444546494E53545220008E
:1040F000494E56535441544520000000494E5650F5
:10410000432000004E4F435020000000554E414CCC
:1041100049474E454420000044495642595A4552A9
:104120004F200000594B00082DE9F04194B00CA835
:1041300011210830FCF731F80AA80DF12D042DA14A
:10414000009029A009AB2246FCF740F806A82FA151
:10415000009008AA2AA007ABFCF738F82E4D0027DC
:104160000C2F08D055F8271020460322FCF720F822
:1041700001370028F4D1294C294D0822D4E9000147
:10418000CDE90C010CA82946FCF712F848B3A4F5B8
:104190008070FEF747FD23A0FDF7BEFAD5E90001C8
:1041A0000222CDE90C01287A8DF838000CAE2046A9
:1041B0003146FEF749FDDDE90910A046DDE9073289
:1041C000069CCDE9000702A81EC022A219212B4699
:1041D000304600F095F908F1080031460622FEF756
:1041E00033FD14B0BDE8F0814A756C2031382032BF
:1041F00030323500255B5E205D202564202564007B
:1042000031313A31333A33380000000025643A2521
:10421000643A256400000000D40000200069000812
:10422000C44D00082A2A2A2A2A2A2A2A2A626F6FBB
:10423000742076657220696E69742A2A2A2A2A2ACD
:104240002A2A2A2A2A2A2A2A2A2A2A2A2A2A2A2ACE
:104250002A2A0A0025732D2530346425303264253E
:104260003032642D2530326425303264253032649A
:104270000000000010B509A0FDF74EFA0D4C01201A
:104280004FF4AF7120600C48FEF736FC0020206030
:104290000AA0BDE81040FDF73FBA00BF776972651C
:1042A000315F626D735F6163635F6177616B650A44
:1042B000000000009C812142882A002077697265F5
:1042C000315F626D735F6163635F6177616B652D01
:1042D000310A000083B0C0B503AF0EC703A9009137
:1042E00000F026F8BDE8884003B0704710B50446DA
:1042F0000A2802D10D20FFF7F9FF0748016819B11C
:104300004A1C02600C7010BD41680029FBD0204699
:10431000BDE81040084700BF2001002010B504464A
:10432000207818B1FFF7E2FF0134F9E710BD000073
:104330002DE9F04F87B0054601A88846A0F1010B92
:10434000294611F8010B252803D000280D4645D138
:10435000CEE06878302804D02D2807D14FF0020A2B
:1043600001E04FF0010AA878033502E002354FF072
:10437000000A0027A0F13001C9B2092909D807EBCA
:104380008701C0B200EB4100A0F1300715F8010B26
:10439000F0E740F02001C9B26C2904BF15F8010B09
:1043A0000AF1040A010600F0A380C1B202466029A6
:1043B00088BF203AD2B2A2F14F03092B08D8DFE818
:1043C00003F0050D0D0D130D110D0D29082024E02E
:1043D000422A21D0432A79D0442A03D0C0B2FFF721
:1043E00085FFADE70A2018E0D8F800904446002089
:1043F00019F8001001300029FAD1461EB0465FEAD4
:104400008A706AD4B84566D22020FFF76FFF08F1A2
:104410000108F4E7102000E00220D8F80030002660
:1044200000244FF0070E002B48BF0124443AB2FA93
:1044300082F2520912EA040C18BF5B42782908BFC5
:104440004FF0270EB3FBF0F406F1010904FB103224
:10445000092A88BF724401A93032162E8A5503D822
:1044600098424E462346EDD9BCF1000F18BF0AF121
:10447000100A5FEACA6005D501A82D2100F80910CD
:1044800009F1010930264C465FEACA7008BF2026B0
:104490005FEA8A7006D4BC4206D23046FFF726FF98
:1044A0000134F5E74C4600E001341BF80900FFF742
:1044B0001DFFB9F10109F8D103E02020FFF716FF35
:1044C0000134BC42F9D308F1040839E798F8000038
:1044D000FFF70CFFF7E708F101064846FFF71EFF5C
:1044E000A046BE42EFD22020FFF700FF0136F8E7DA
:1044F00007B0BDE8F08F40F2010CC2F2000C60473B
:104500000FB47CB50C0009AD01D0611E00E00021A4
:10451000CDE90001064B6A462946089800F01AF8D2
:10452000002C02D0009A002111707CBC5DF814FBB5
:104530009748000802E008C8121F08C1002AFAD1F3
:1045400070477047002001E001C1121F002AFBD113
:10455000704700002DE9FF4F8BB0884605460026C6
:1045600006E025280BD0DDE90D1290476D1C761C66
:1045700028780028F5D10FB03046BDE8F08F002430
:10458000A146A2460122AE4900E0044315F8013FCE
:10459000203B02FA03F00842F7D128782A2810D0ED
:1045A0006FF02F022878A0F13001092915D809EB06
:1045B000890102EB410144F0020400EB01096D1C8A
:1045C000F0E758F8041B5FEA010903D544F40054EE
:1045D000C9F1000944F002046D1C28782E2817D177
:1045E00015F8010F44F004042A280ED06FF02F02B2
:1045F0002878A0F1300109290AD80AEB8A0102EBD8
:10460000410100EB010A6D1CF2E758F804AB6D1C88
:1046100028786C280FD006DC4C2817D068280DD0DD
:104620006A2814D104E0742810D07A280FD10DE044
:1046300044F400140AE044F4801401E044F440140B
:104640006978814202D104F580146D1C6D1C2878B4
:10465000692865D006DC00288DD0632827D064281F
:1046600006D15DE06E2808D073282AD0752877D04F
:10467000DDE90D129047761CE0E0C4F302500228F9
:1046800009D003280DD0D8F8001004280DD00E60F2
:1046900008F10408D2E0D8F80010F217C1E900626E
:1046A000F6E7D8F800100E80F2E70E70F0E718F881
:1046B000041B8DF8001000208DF80100EB4601204E
:1046C00003E058F804BB4FF0FF3061074FF00007DC
:1046D00001D40AE07F1C57450DDA8742FADB1BF84C
:1046E00007100029F6D106E07F1C8742FCDB1BF88F
:1046F00007100029F8D1DDE90D23A9EB0700814659
:10470000214600F0B1F83044C61904E0DDE90D128D
:104710001BF8010B90477F1EF8D22146484688E0DF
:1047200058F8040BC4F302514FF00A0B032900D1CF
:1047300000B2042900D140B2002802DA40422D2103
:1047400002E0210505D52B218DF82410012104E07C
:1047500006E0E10710D02021F6E708AF089113E04A
:1047600058F8040BC4F302514FF00A0B032900D18F
:1047700080B2042900D1C0B20021EEE75946FBF710
:10478000ECFE303107F8011D0028F7D1ADEB070032
:1047900000F1200B600702D524F4803401E04FF0D3
:1047A000010ADA4502DDAAEB0B0000E00020824698
:1047B00000EB0B0108980144A9EB01000A90E0030B
:1047C00006D4DDE90D2321460A9800F04DF8064491
:1047D0004FF0000908E009A911F80900DDE90D1200
:1047E000904709F10109761C08998945F3DBE0033C
:1047F0000CD5DDE90D2321460A9800F035F8064472
:1048000004E0DDE90D1230209047761CBAF100017A
:10481000AAF1010AF5DC05E0DDE90D1217F8010B3C
:104820009047761CBBF10001ABF1010BF4DC0A9858
:104830002146DDE90D2300F005F806446D1C97E6DE
:10484000092801002DE9F041044600251E461746BF
:10485000880404D405E039462020B0476D1C641E4E
:10486000F9D52846BDE8F0812DE9F0410446002540
:104870001E469046C80301D5302700E02027880453
:1048800004D505E041463846B0476D1C641EF9D595
:104890002846BDE8F0814A68002A06D00A68531C01
:1048A0000B6010704868401E48607047DDDDDDDD3C
:1048B000DCBBBBDDDDDDDDDDDDDDDDDD98888888B1
:1048C0008888888877777777778888888555555658
:1048D00066666666666666666668888883333332AF
:1048E00022222222222222222228888D0204060845
:1048F0000000000000000000010203040607080990
:104900000000000001020304010203040607080975
:1049100014263534251D494E424F4F54204F5645DD
:104920005254494D452E0A00434C52204F54415F8A
:10493000464C414720494E20464C4153482E0A00E0
:104940004661696C656420746F20676F746F2041E5
:1049500070706C69636174696F6E204D6F64652E51
:104960000A004F544120617765616B20626D732EA0
:104970000A00434D432052656376203A00464F4378
:104980002052656376203A00424C4520526563769A
:10499000203A004665620044656300417567004A3D
:1049A000756C004A616E004A756E00536570004D6B
:1049B000617200417072004F6374004E6F76004D5B
:1049C000617900424C455F4F54412070726F6772AD
:1049D000616D6C656E3D25640D0A00424C455F4F6C
:1049E00054412043524320636865636B20657272B3
:1049F0002121210A00424C455F4F54412E2E706107
:104A0000636B5F6E756D203D203A25642C207061CC
:104A1000636B6C656E203D2025642C6C6173745F44
:104A20007061636B3A25642E2E2E2E0A00424C458F
:104A30005F4F54412044422C207265637620316BD5
:104A400020646174612C4150502057726974652054
:104A500050616765203D2025642C20737461747556
:104A600073203D2025642E2E2E0A00424C455F4FB8
:104A700054412044422C20426567696E205570677E
:104A8000726164652E2E2E0A00424C455F4F5441E0
:104A90002043524320636865636B204F4B2E0A000E
:104AA000424C455F4F544120457261736520466C0E
:104AB000617368207374617475733A25642C506156
:104AC00067653A25642E0A00424C455F4F544120E9
:104AD0006572617365206261636B757020657272C7
:104AE0006F722E0A00424C455F4F5441207265633D
:104AF000656976655F7265706561742E0A00424C67
:104B0000455F4F5441206372635F747970653A2545
:104B100064206372633A307825782E0A00424C454F
:104B20005F4F5441202D2D2D2D637263626C653DC6
:104B3000307825782D2D2D6372636D63753D307847
:104B400025782E0A00424C455F4F5441206465761B
:104B5000696365206572726F720A00434D435F4F4F
:104B600054412070726F6772616D6C656E3D256493
:104B70000D0A00434D435F4F544120436D64203084
:104B80007835204F4B2E0A00434D435F4F54412050
:104B9000436D6420307836204F4B2E0A00434D433E
:104BA0005F4F544120457261736520466C617368A4
:104BB000207374617475733A25642C506167653A8B
:104BC00025642E0A00434D435F4F544120706163BA
:104BD0006B6E756D3A25642C7061636B6C656E3A13
:104BE00025642E0A00434D435F4F544120436D64BA
:104BF00020307835204572726F722E0A00434D4383
:104C00005F4F544120436D64203078372043524336
:104C10003136204572726F722E0A00434D435F4F4A
:104C20005441206572617365206261636B75702009
:104C30006572726F722E0A00434D435F4F544120DC
:104C4000726563656976655F7265706561742E0A69
:104C500000434D435F4F5441204571703A307825F1
:104C6000782E0A00434D435F4F5441207772697498
:104C700065206261636B7570206572726F722E20A1
:104C80007061636B6E756D3D25640A004255535F1C
:104C90004F54412070726F6772616D6C656E3D2577
:104CA000640D0A004255535F4F544120436D642008
:104CB00030783333204572726F722E2E0A004255BF
:104CC000535F4F544120436D642030783131204F81
:104CD0004B2E0A004255535F4F544120436D6420D0
:104CE00030783332204F4B2E0A004255535F4F54D9
:104CF0004120457261736520466C6173682065725E
:104D0000726F72207374617475733A25642C5061EC
:104D100067653A25642E0A004255535F4F5441207F
:104D20007061636B6E756D3A25642C7061636B6C9A
:104D3000656E3A25642E0A005041434B5F43484557
:104D4000434B20726573756C743A25642E0A0042D9
:104D500055535F4F544120436D64203078313120EA
:104D60004572726F722E0A004255535F4F544120B4
:104D7000436D642030783332204572726F722E0A90
:104D8000004255535F4F54412072656365697665F3
:104D90005F7265706561742E0A004255535F4F540F
:104DA00041207772697465206261636B757020655C
:104DB00072726F722E207061636B6E756D3D25642B
:104DC0000A000000553244303156303300000000F4
:104DD000004E000800000020AC0000003445000830
:104DE000AC4E0008AC000020640000003445000810
:104DF000104F000810010020F8350000444500085D
:104E000010B5294A072108234CB2002C4AD413605C
:104E1000CCB200BF20FA04F400BFE40700BF00BF1B
:104E200000BF00BF00BF00BF00BF00BF00BF00BF8A
:104E300000BF14D000BF00BF00BF00BF00BF00BF55
:104E400000BF00BF00BF00BF00BF00BF00BF00BF6A
:104E500000BF00BF00BF00BF00BF536015E053603C
:104E600000BF00BF00BF00BF00BF00BF00BF00BF4A
:104E700000BF00BF00BF00BF00BF00BF00BF00BF3A
:104E800000BF00BF00BF00BF00BF00BF013900BFAF
:104E900000BF00BF00BF00BF00BF00BF00BF00BF1A
:104EA00000BFB1E710BD00BF10100140965AA52603
:104EB00024434D4316680000685901430C866E1464
:104EC000B07951A37F962499970000000090D003F9
:104ED00017EF0000A349000893490008AF490008F4
:104EE000B3490008BF490008A74900089F490008C6
:104EF0009B490008AB490008B7490008BB490008B6
:104F000097490008FF000000FF00000000000000BB
:0400000508000131BD
:020000040800F2
:10700000C85D0120457100087DF900087DD00008A9
:10701000517100085371000855710008000000000C
:1070200000000000000000000000000041690108AD
:107030005971000800000000014901089181010810
:107040005F7100085F7100085F710008C158010896
:107050005F7100085F7100085F7100085F710008D0
:107060005F710008B5BE0008C9BE00085F71000866
:107070008DAE00085F7100085F710008B1AE0008B6
:10708000D9AE00085F7100085F7100085F710008E9
:10709000D99501085F7100085F71000829BF0008D9
:1070A0005F7100085F7100085F7100085F71000880
:1070B0007985010851870108CD8801085F710008B2
:1070C0005F7100085F7100085F7100085F71000860
:1070D0005F7100083D9301086593010881930108E1
:1070E00069BE00085F7100085F7100085F710008E9
:1070F0005F7100085F7100085F7100085F71000830
:107100005F7100085F7100085F7100085F7100081F
:10711000C5920108E5920108198901085F7100080C
:107120005F7100085F71000805AF00085F7100081B
:10713000DFF80CD000F084FF0048004779C3010855
:10714000C85D01200648804706480047FEE7FEE785
:10715000FEE7FEE7FEE7FEE7FEE7FEE7FEE7FEE707
:10716000098201083171000810B5431A934209D20F
:107170008318881803E010F8011D03F8011D521E42
:10718000F9D210BD40EA01039B0703D009E008C90A
:10719000121F08C0042AFAD203E011F8013B00F8DC
:1071A000013B521EF9D210BDD2B201E000F8012B12
:1071B000491EFBD270470022F6E710B513460A4677
:1071C00004461946FFF7F0FF204610BD421C10F898
:1071D000011B0029FBD1801A704730B504460020FE
:1071E000034600E05B1C934203D2E05CCD5C401B95
:1071F000F8D030BD034611F8012B00F8012B002A0E
:10720000F9D11846704700000FB400B58DB010A931
:1072100009900B9000914FF0FF300A9000200C90E5
:1072200005480690054807906A4609A80F9900F09E
:107230009BFD0DB05DF814FB857D0008A37D000863
:107240002DE9FF5F1D464FF0FF3BD5E90146914612
:107250005F464FF00008A9697F1C01988847296A9A
:10726000824688470028F6D1BAF1FF3F0CD024F4BB
:10727000C064002E19DD600614D5BAF12B0F09D0B9
:10728000BAF12D0F0ED103E0584604B0BDE8F09FCF
:1072900044F48064A9697F1C01988847761E824661
:1072A000002E02DDBAF1300F03D0B9F1000F26D065
:1072B00032E0A969761E44F400747F1C0198884767
:1072C0008246002E05DDBAF1780F06D0BAF1580FCC
:1072D00003D0B9F1000F10D01EE0B9F1000F02D0B9
:1072E000B9F1100F18D1A969761E24F400747F1C1F
:1072F000019888478246102002E0082000E00A201A
:10730000814609E008FB0908A969761E44F4007467
:107310007F1C019888478246002E05DD494650466D
:1073200000F00EFD0028EDDAE96901988847A00514
:1073300002D46FF00100A8E7E00725D1600613D55D
:10734000600502D5C8F1000000E0404629680A1D2A
:107350002A600968220501D5087015E0220701D5C9
:10736000088011E008600FE02868011D29600068AE
:10737000210502D580F8008006E0210702D5A0F89B
:10738000008001E0C0F8008038467EE72DE9FF5F0D
:10739000D2E901A74FF00008916999461446DDF83B
:1073A00038B0464601988847054659EA0B0005D093
:1073B00009E0A169761C019888470546216A28469C
:1073C00088470028F5D1681C03D05FEACA7005D051
:1073D00015E04FF0FF3004B0BDE8F09F2068011DBC
:1073E0002160D0F800800AE05FEACA7001D108F895
:1073F000015BA169761C7F1E019888470546002F16
:107400001ADD681C18D0B9F1000F0DD0E81705EB94
:10741000D060421120F01F0059F822102A1A0120D2
:1074200090400142E0D107E0BBF1000FDCD1216ABE
:10743000284688470028D7D0E16901988847BBF1E2
:10744000000F07D1002E05DD5FEACA7002D10021CE
:1074500088F80010A068B84203DDBBF1000F03D02C
:1074600017B16FF00100B6E73046B4E7F0B480EA38
:107470000102D40F4200B2EB410F02D2024608468D
:1074800011464A0042D0C30DDDB2C1F3C752AD1A56
:10749000202D35DAC1F3160141F4000204B1524245
:1074A000C5F1200602FA06F12A411044B3EBD05F81
:1074B00023D0C4B1012DA0EBC35009DCF0BC4FF0C8
:1074C000004202EAC352DBB200F5000000F083BCC8
:1074D000400000F1807000EBC350A0F1807040EAE2
:1074E000D170490009E0490841EAC071A0EBC350DE
:1074F00000F50000400800EBC350F0BC00F062BC97
:107500006142012202EB4101001BF6E7F0BC70472B
:1075100081F00041AAE780F00040A7E780EA01027D
:1075200010B502F00043400022D04A001FD0010EE7
:1075300001EB1261C0F35600C2F3560240F40000A2
:1075400042F40002A0FB022000047F39140400D0A2
:10755000401C50EA124001D44000491EC2B20C0641
:1075600004EBD010401C4008802A02D003E0002029
:1075700010BD20F00100002900DA0020184310BDE2
:1075800030B480EA010202F0004530F0004221F000
:10759000004013D090B1C30DD40DC2F31601C0F357
:1075A0001600E41A41F4000140F400027D349142D7
:1075B00001D3641C00E04900002C02DA30BC00203A
:1075C00070474FF400000023914201D3891A03430E
:1075D00040084FEA4101F7D151B1914202D14FF039
:1075E000004105E002D24FF0010101E06FF001011E
:1075F00003EBC450284430BC00F0E4BB2DE9FE4F3F
:10760000804681EA0300C00F0C46009021F0004143
:1076100023F00045B8EB0200A94105D240462146BF
:1076200090461C460B46024623F00040104347D0CC
:10763000270DC7F30A00C3F30A510290401A0190C4
:1076400040286BDAC3F3130040F4801B0098924685
:1076500020B10023D2EB030A63EB0B0B01985946D0
:10766000C0F14002504600F0EEFA06460D46504684
:107670005946019A00F006FB10EB08006141002416
:1076800087EA115284EAE7731A4340D0009A62B342
:10769000019A012A4FEA075215DC001B61EB020137
:1076A0004FF0004202EA0752CDE90042001C41F5CA
:1076B000801132462B4600F024FC03B0BDE8F08F69
:1076C00040462146F9E7001B61EB0201001C41F531
:1076D000801300185B412018A2F5001747EB030147
:1076E00040EAD570B6196D4111E06D084FEA3606D3
:1076F00045EAC0754FEA0752001B61EB0201001C0E
:1077000041F5801149084FEA3000001951413246D5
:107710002B4603B0BDE8F04F00F0E4BB0098012217
:1077200040000023D0EB020263EBE0730098214697
:107730004FEAE074B8EB000061EB0401E9E783F085
:1077400000435BE781F0004158E72DE9FE4F81EAF5
:10775000030404F0004421F0004100944FF0000BBA
:1077600023F0004350EA01045ED052EA03045BD0E8
:10777000C3F30A54C1F30A552C44A4F2F334019420
:10778000A0FB0254C1F3130141F48011C3F31303AE
:1077900043F4801301FB024400FB034E840A970A62
:1077A00044EA815447EA8357A4FB076802958D0A8F
:1077B00005FB07854FEA932C04FB0C542705029D1B
:1077C0004FEA065847EA1637B5EB08056EEB070C8B
:1077D000870E920E47EA811742EA8312A7FB020145
:1077E000B6EB0B0164EB00042B0D43EA0C335E187F
:1077F00044EB1C50DA465146E7FB0201C5F3130483
:107800004FEA0B3343EA14534FEA0432019C43EA34
:107810000603A4F10C040294009CCDE900B400F02E
:1078200070FB03B0BDE8F08F00200146F9E72DE9B9
:10783000F04D81EA030404F0004B21F000451446AA
:107840004FF0000A23F0004150EA050220D054EA2C
:1078500001021DD0C5F30A570246C5F31303C1F355
:107860001300C1F30A5640F4801543F48013A7EBCC
:107870000608101BD64608F2FD3873EB050002D34C
:1078800008F1010801E092185B41B8F1000F03DA3A
:1078900000200146BDE8F08D00204FF4801106461F
:1078A00084460EE0171B73EB050705D3121B63EB31
:1078B000050306434CEA010C49084FEA30009218D0
:1078C0005B4150EA0107EDD152EA030012D082EA8F
:1078D000040083EA0501084305D0101BAB4106D222
:1078E0000122002306E000224FF0004302E06FF087
:1078F000010253101AEB06004CEB085110EB0A0082
:1079000041EB0B01BDE8F04D00F0ECBA002801DBC3
:10791000C0F10040002901DBC1F10041814201D8E2
:107920000120704700207047002801DBC0F10040B3
:10793000002901DBC1F10041814201D201207047E1
:1079400000207047002801DBC0F10040002901DB66
:10795000C1F10041814201D30120704700207047EE
:10796000002801DBC0F10040002901DBC1F100412A
:10797000814201D90120704700207047002801DBB7
:10798000C0F10040002901DBC1F10041814201D179
:10799000012070470020704730B5041E71F10004CB
:1079A00004DB4FF00044404264EB0101141E73F10C
:1079B000000405DB1C464FF00043524263EB040316
:1079C000101A8B4101D2012030BD002030BD30B5EE
:1079D000041E71F1000404DB4FF00044404264EBEC
:1079E0000101141E73F1000405DB1C464FF0004337
:1079F000524263EB0403101A8B4101D3012030BDC6
:107A0000002030BD30B5041E71F1000404DB4FF0DE
:107A10000044404264EB0101141E73F1000405DBD5
:107A20001C464FF00043524263EB040342404B407C
:107A30001A4301D0002030BD012030BDC10F80EAC3
:107A4000E0700844CA079623002100F0C4B99623C9
:107A50000022114600F0BFB90EB5C10F80EAE070F8
:107A60000844CA07002140F233438DE80E000A465D
:107A70000B4600F046FA03B000BD0EB540F23341AC
:107A800002910021CDE900110A460B4600F039FAB7
:107A900003B000BD00F0004220F00040C10DC0F373
:107AA000160040F400007F2901DA00207047962973
:107AB00003DCC1F19601C84001E096398840002AF4
:107AC000F4D04042704720F00040C10DC0F31600D2
:107AD00040F400007F2901DA00207047962903DC7A
:107AE000C1F19601C840704796398840704770B51B
:107AF000C1F30A5201F000450024C1F3130140F222
:107B0000FF3341F480119A4201DA002070BD40F247
:107B100033439A42A2F2334203DC524200F0A2F80D
:107B200000E090402C43F1D0404270BD00F0004294
:107B300030F000400AD0C10D01F56071C0F31600AD
:107B400042EA0151C2084007114370470020014634
:107B50007047000030B5041E71F1000404DB4FF0E3
:107B60000044404264EB0101141E73F1000405DB84
:107B70001C464FF00043524263EB0403994208BF96
:107B8000904230BD01F0004330B421F0004150EA92
:107B9000010206D00A0DA2F56072C1F31301002A9A
:107BA00002DC30BC00207047440F44EAC104C1002D
:107BB000E01830BC00EBC25000F004B9002801DB33
